{
 "cells": [
  {
   "cell_type": "code",
   "execution_count": 25,
   "metadata": {},
   "outputs": [],
   "source": [
    "import hashlib\n",
    "import base58\n",
    "\n",
    "adress_from_bech32 = 'tb1qrclfyscpy5zwyuayvpvvzlzzqum72ht66490p4'\n",
    "privKey_WIF_from = 'cPxyb3LtyoxLu9vAwWEKCz3gfW3BTcHEPLdZivbtsrHBvNc9ThN4'\n",
    "pubKey_from = '029220b4481f0ba8d4e24e1c7ce338a360b553b07e2b4a56eb077629acdaf94090'\n",
    "\n",
    "address_to_2 = 'tb1qwkpfmzzhezyeul4w8laaggdkecmm95rf6pcchm'\n",
    "\n",
    "\n",
    "def sha256(data):\n",
    "    return hashlib.sha256(data).digest()\n",
    "\n",
    "def wif_to_hex(wif):\n",
    "    # Decode WIF to bytes\n",
    "    wif_bytes = base58.b58decode(wif)\n",
    "    \n",
    "    # Remove the version byte (0x80 for mainnet, 0xEF for testnet)\n",
    "    # Remove the compression flag (0x01)\n",
    "    # Remove the 4-byte checksum\n",
    "    private_key_hex = wif_bytes[1:-5]\n",
    "    \n",
    "    return private_key_hex.hex()"
   ]
  },
  {
   "cell_type": "code",
   "execution_count": 26,
   "metadata": {},
   "outputs": [
    {
     "name": "stdout",
     "output_type": "stream",
     "text": [
      "hashPrevouts:  6173c710d37f60d3430518f57a0cdc3a1aa14f7366a9e9fec2c84b3676912cb7\n",
      "hashSequence:  caf35e5224de16efa3ccaf41070f6e7b9432b6f79551e629fca9d1c03b43bc52\n",
      "outpoint:  a1556fa5dd1df50fe1d160d46ea156b235a40825c76ede7156b50b6a6953ab5500000000\n",
      "scriptCode:  1976a9141e3e9243012504e273a46058c17c420737e55d7a88ac\n",
      "60e3160000000000\n",
      "outpus:  60e316000000000016001475829d8857c8899e7eae3ffbd421b6ce37b2d069\n"
     ]
    }
   ],
   "source": [
    "\n",
    "# lets define the known variables\n",
    "###  1  version\n",
    "version = '02000000'\n",
    "\n",
    "### 2 hashPrevouts\n",
    "tx_hash = '55ab53696a0bb55671de6ec72508a435b256a16ed460d1e10ff51ddda56f55a1'\n",
    "txid = bytes.fromhex(tx_hash)[::-1].hex()\n",
    "\n",
    "vout = '00000000'\n",
    "\n",
    "Prevouts = txid + vout\n",
    "\n",
    "\n",
    "hashPrevouts = sha256(bytes.fromhex(sha256(bytes.fromhex(Prevouts)).hex())).hex()\n",
    "\n",
    "print('hashPrevouts: ', hashPrevouts)\n",
    "\n",
    "### 3 hashSequence\n",
    "sequence = 'fdffffff'\n",
    "hashSequence = sha256(bytes.fromhex(sha256(bytes.fromhex(sequence)).hex())).hex()\n",
    "\n",
    "print('hashSequence: ', hashSequence)\n",
    "\n",
    "### 4 outpoint\n",
    "outpoint = txid + vout \n",
    "\n",
    "print('outpoint: ', outpoint)\n",
    "\n",
    "### 5 scriptCode\n",
    "\n",
    "# pubKey of the spender address\n",
    "pubKey = bytes.fromhex(pubKey_from)\n",
    "pubkey_sha256 = hashlib.sha256(pubKey).digest()\n",
    "pubkey_hash = hashlib.new('ripemd160', pubkey_sha256).digest()\n",
    "\n",
    "\n",
    "scriptCode = '1976a914' + pubkey_hash.hex() + '88ac'\n",
    "\n",
    "print('scriptCode: ', scriptCode)\n",
    "\n",
    "\n",
    "### 6 amount\n",
    "# now lets convert 0.0047 btc that we wand to spend to satoshi\n",
    "btc_value = 0.015\n",
    "# Convert BTC to satoshi (1 BTC = 100,000,000 satoshis)\n",
    "satoshis = int(btc_value * 100_000_000)\n",
    "# Convert to 8-byte little endian format\n",
    "\n",
    "amount = satoshis.to_bytes(8, 'little').hex().rjust(16, '0')\n",
    "print(amount)\n",
    "\n",
    "### 7 sequence\n",
    "# use already defined \n",
    "\n",
    "\n",
    "\n",
    "### 8 hashOutputs\n",
    "# scriptPubkey is OP_0 + len(hash256 of the raw_multiSig_Addr) + hash256 of the raw_multiSig_Addr\n",
    "\n",
    "#WitnessScript_hash = sha256(bytes.fromhex(raw_multiSig_Addr)).hex()\n",
    "#\n",
    "#scriptPubkey = '0020' + WitnessScript_hash\n",
    "#len_scriptPubkey = hex(len(scriptPubkey)//2)[2:]\n",
    "scriptPubkey = '001475829d8857c8899e7eae3ffbd421b6ce37b2d069'\n",
    "len_scriptPubkey = hex(len(scriptPubkey)//2)[2:]\n",
    "\n",
    "\n",
    "\n",
    "\n",
    "# im not clear if i need to add len of scriptPubkey to the hashOutputs or not\n",
    "Outputs = amount + len_scriptPubkey + scriptPubkey\n",
    "\n",
    "print('outpus: ', Outputs)\n",
    "\n",
    "hashOutputs = sha256(bytes.fromhex(sha256(bytes.fromhex(Outputs)).hex())).hex()\n",
    "\n",
    "\n",
    "### 9 locktime\n",
    "locktime = \"00000000\"\n",
    "\n",
    "### 10  sig_hash\n",
    "sig_hash = \"01000000\"\n",
    "\n",
    "#  xxx\n",
    "btc_in = 0.01717112\n",
    "\n",
    "# Convert BTC to satoshi (1 BTC = 100,000,000 satoshis)\n",
    "satoshis_in = int(btc_in * 100_000_000)\n",
    "# Convert to 8-byte little endian format\n",
    "\n",
    "inp_value = satoshis_in.to_bytes(8, 'little').hex().rjust(16, '0')\n",
    "\n",
    "\n"
   ]
  },
  {
   "cell_type": "code",
   "execution_count": 27,
   "metadata": {},
   "outputs": [],
   "source": [
    "##!!!##\n",
    "# for signing the TX it is important to deffirentiate between value in outputhash and value in input. \n",
    "# value in output hash is what we want to send, value in input is what we have in the input UTXO\n",
    "\n",
    "rawTx_toSign = (\n",
    "    version         #1# 4 bytes: nVersion of the transaction\n",
    "    + hashPrevouts  #2# 32 bytes: SHA256 hash of all previous outputs\n",
    "    + hashSequence  #3# 32 bytes: SHA256 hash of input sequence numbers\n",
    "    + outpoint      #4# (32-byte hash + 4-byte little endian) \n",
    "    + scriptCode    #5# Variable length: Script of the input (often P2PKH script for P2WPKH spends)\n",
    "    + inp_value        #6# 8 bytes: Value of the UTXO being spent\n",
    "    + sequence      #7# 4 bytes: nSequence of the input\n",
    "    + hashOutputs   #8# 32 bytes: SHA256 hash of the outputs (if SIGHASH_ALL)\n",
    "    + locktime      #9# 4 bytes: nLocktime of the transaction\n",
    "    + sig_hash      #10# 4 bytes: Sighash type (e.g., SIGHASH_ALL)\n",
    ")"
   ]
  },
  {
   "cell_type": "code",
   "execution_count": 28,
   "metadata": {},
   "outputs": [
    {
     "name": "stdout",
     "output_type": "stream",
     "text": [
      "privKey:  472240bd73e75e0f9b476ef21f0b59f34dd87149cbc80deed3d1cc6c4e0b4f96\n",
      "47304402203034def7fdd51f5c1ebf81be0f5bb62c00157d56c43a50bc03a6817d763ea98e02203a6ec04d9f920060773f0f908f7777adea7bf79cc9baf04d8a7a47003fee312101\n"
     ]
    }
   ],
   "source": [
    "# now we will sign the raw transaction with our private keys\n",
    "\n",
    "privKey = wif_to_hex(privKey_WIF_from)\n",
    "\n",
    "print('privKey: ', privKey)\n",
    "\n",
    "\n",
    "rawTx_toSign_hash = sha256(bytes.fromhex(sha256(bytes.fromhex(rawTx_toSign)).hex())).hex()\n",
    "\n",
    "from coincurve import PrivateKey\n",
    "\n",
    "# signing key from private key deterministically\n",
    "\n",
    "def signTx(rawTx_toSign_hash, privKey_hex):\n",
    "    bytes_to_sign = bytes.fromhex(rawTx_toSign_hash)\n",
    "    privkey = PrivateKey(bytes.fromhex(privKey_hex))\n",
    "    signature = privkey.sign(bytes_to_sign, hasher=None)\n",
    "\n",
    "    # also to signale that we used SigHash all we add 01 at the end\n",
    "    signature += bytes.fromhex('01')\n",
    "\n",
    "    scriptSig = signature.hex()\n",
    "    Sig_len = hex(len(signature))[2:]\n",
    "    scriptSig = Sig_len + scriptSig\n",
    "\n",
    "    return scriptSig\n",
    "\n",
    "scriptSig1 = signTx(rawTx_toSign_hash, privKey)\n",
    "\n",
    "print(scriptSig1)\n"
   ]
  },
  {
   "cell_type": "markdown",
   "metadata": {},
   "source": [
    "# Now we can start constructing the transaction. The structure of the transaction is very different from what has been signed (in legacy it was very similiar to what is signed, but here not)\n",
    "rawTx = (\n",
    "    version          #1# 4 bytes: Transaction version number\n",
    "    + marker         #2# 1 byte: SegWit marker (0x00)\n",
    "    + flag           #3# 1 byte: SegWit flag (0x01)\n",
    "    + tx_in_count    #4# Variable length: Number of transaction inputs\n",
    "    + txid           #5# 32 bytes: Transaction ID of the UTXO being spent\n",
    "    + vout           #6# 4 bytes: Index of the UTXO in the transaction\n",
    "    + scriptSig_empty      #7# Variable length: ScriptSig (often empty for SegWit)\n",
    "    + sequence       #8# 4 bytes: Sequence number\n",
    "    + tx_out_count   #9# Variable length: Number of transaction outputs\n",
    "    + amount         #10# 8 bytes: Amount of satoshis to send to the recipient\n",
    "    + scriptPubkey   #11# Variable length: Locking script (e.g., P2WPKH or P2WSH)\n",
    "    # witness_field  Witness field, containing witness data for each input\n",
    "    + witness_count\n",
    "    + ScriptSig1\n",
    "    + pubkey1\n",
    "      \n",
    "    + locktime       #13# 4 bytes: Time or block number when the transaction becomes valid\n",
    ")\n",
    "\n"
   ]
  },
  {
   "cell_type": "code",
   "execution_count": 29,
   "metadata": {},
   "outputs": [
    {
     "name": "stdout",
     "output_type": "stream",
     "text": [
      "version:  02000000\n",
      "txid:  a1556fa5dd1df50fe1d160d46ea156b235a40825c76ede7156b50b6a6953ab55\n",
      "vout:  00000000\n",
      "sequence:  fdffffff\n",
      "amount:  60e3160000000000\n",
      "scriptPubkey:  16001475829d8857c8899e7eae3ffbd421b6ce37b2d069\n",
      "scriptSig1:  47304402203034def7fdd51f5c1ebf81be0f5bb62c00157d56c43a50bc03a6817d763ea98e02203a6ec04d9f920060773f0f908f7777adea7bf79cc9baf04d8a7a47003fee312101\n",
      "pubkey:  21029220b4481f0ba8d4e24e1c7ce338a360b553b07e2b4a56eb077629acdaf94090\n",
      "locktime:  00000000\n"
     ]
    }
   ],
   "source": [
    "# lets define the missing variables\n",
    "###  1  version (already defined)\n",
    "print('version: ', version)\n",
    "\n",
    "### 2 flag and marker (actually legacy tx expects after version, the number of inputs. \n",
    "# If it sees 00, it will know that it is SegWit with other tx structure - my understanding)\n",
    "\n",
    "\n",
    "marker = '00'\n",
    "flag = '01'\n",
    "\n",
    "### 3 tx_in_count\n",
    "tx_in_count = '01'\n",
    "\n",
    "### 4 txid (already defined)\n",
    "print('txid: ', txid)\n",
    "\n",
    "### 5 vout (already defined)\n",
    "print('vout: ', vout)\n",
    "\n",
    "### 6 scriptSig (empty for segwit, will be placed in witness)\n",
    "scriptSig_empty = '00'  \n",
    "\n",
    "### 7 sequence (already defined)\n",
    "print('sequence: ', sequence)\n",
    "\n",
    "### 8 tx_out_count\n",
    "tx_out_count = '01'\n",
    "\n",
    "### 9 amount (already defined)\n",
    "print('amount: ', amount)\n",
    "\n",
    "### 10 scriptPubkey (already defined)\n",
    "\n",
    "scriptPubkey = len_scriptPubkey + scriptPubkey\n",
    "print('scriptPubkey: ', scriptPubkey)\n",
    "\n",
    "### 11 witness count (as i understand it is the number fields in witness...will be probably clear later)\n",
    "witness_count = '02'\n",
    "\n",
    "### 12 signature (already defined)\n",
    "print('scriptSig1: ', scriptSig1)\n",
    "\n",
    "### 13 pubkey (already defined)\n",
    "pubkey1 = hex(len(pubKey_from)//2)[2:] + pubKey_from\n",
    "\n",
    "print('pubkey: ', pubkey1)\n",
    "\n",
    "### 14 locktime (already defined)\n",
    "print('locktime: ', locktime)\n",
    "\n",
    "\n",
    "\n",
    "\n",
    "\n",
    "\n",
    "\n",
    "\n"
   ]
  },
  {
   "cell_type": "code",
   "execution_count": 30,
   "metadata": {},
   "outputs": [
    {
     "name": "stdout",
     "output_type": "stream",
     "text": [
      "02000000000101a1556fa5dd1df50fe1d160d46ea156b235a40825c76ede7156b50b6a6953ab550000000000fdffffff0160e316000000000016001475829d8857c8899e7eae3ffbd421b6ce37b2d0690247304402203034def7fdd51f5c1ebf81be0f5bb62c00157d56c43a50bc03a6817d763ea98e02203a6ec04d9f920060773f0f908f7777adea7bf79cc9baf04d8a7a47003fee31210121029220b4481f0ba8d4e24e1c7ce338a360b553b07e2b4a56eb077629acdaf9409000000000\n"
     ]
    }
   ],
   "source": [
    "rawTx = (\n",
    "    version          #1# 4 bytes: Transaction version number\n",
    "    + marker         #2# 1 byte: SegWit marker (0x00)\n",
    "    + flag           #3# 1 byte: SegWit flag (0x01)\n",
    "    + tx_in_count    #4# Variable length: Number of transaction inputs\n",
    "    + txid           #5# 32 bytes: Transaction ID of the UTXO being spent\n",
    "    + vout           #6# 4 bytes: Index of the UTXO in the transaction\n",
    "    + scriptSig_empty      #7# Variable length: ScriptSig (often empty for SegWit)\n",
    "    + sequence       #8# 4 bytes: Sequence number\n",
    "    + tx_out_count   #9# Variable length: Number of transaction outputs\n",
    "    + amount         #10# 8 bytes: Amount of satoshis to send to the recipient\n",
    "    + scriptPubkey   #11# Variable length: Locking script (e.g., P2WPKH or P2WSH)\n",
    "    # witness_field  Witness field, containing witness data for each input\n",
    "    + witness_count\n",
    "    + scriptSig1\n",
    "    + pubkey1\n",
    "      \n",
    "    + locktime       #13# 4 bytes: Time or block number when the transaction becomes valid\n",
    ")\n",
    "\n",
    "print(rawTx)"
   ]
  },
  {
   "cell_type": "markdown",
   "metadata": {},
   "source": [
    "This is the same output as produced by Bitcoin Core console:\n",
    "02000000000101a1556fa5dd1df50fe1d160d46ea156b235a40825c76ede7156b50b6a6953ab550000000000fdffffff0160e316000000000016001475829d8857c8899e7eae3ffbd421b6ce37b2d0690247304402203034def7fdd51f5c1ebf81be0f5bb62c00157d56c43a50bc03a6817d763ea98e02203a6ec04d9f920060773f0f908f7777adea7bf79cc9baf04d8a7a47003fee31210121029220b4481f0ba8d4e24e1c7ce338a360b553b07e2b4a56eb077629acdaf9409000000000\n",
    "\n",
    "-----OKEY-----"
   ]
  }
 ],
 "metadata": {
  "kernelspec": {
   "display_name": "Python 3",
   "language": "python",
   "name": "python3"
  },
  "language_info": {
   "codemirror_mode": {
    "name": "ipython",
    "version": 3
   },
   "file_extension": ".py",
   "mimetype": "text/x-python",
   "name": "python",
   "nbconvert_exporter": "python",
   "pygments_lexer": "ipython3",
   "version": "3.9.6"
  },
  "orig_nbformat": 4
 },
 "nbformat": 4,
 "nbformat_minor": 2
}
