{
 "cells": [
  {
   "cell_type": "markdown",
   "metadata": {},
   "source": [
    "Here we will create a 2 of 3 multisig address P2SH (Pay to Script Hash), found it and then spend from it. "
   ]
  },
  {
   "cell_type": "markdown",
   "metadata": {},
   "source": [
    "To create 2 of 3 multisig address we need 3 public keys and we will use the following keys: \n",
    "- OP_m pubkey1 OP_n OP_n pubkey2 OP_n OP_n pubkey3 OP_n OP_n OP_n CHECKMULTISIG\n",
    "\n",
    "Where m is the number of required signatures and n is the number of public keys\n",
    "\n"
   ]
  },
  {
   "cell_type": "code",
   "execution_count": 6,
   "metadata": {},
   "outputs": [
    {
     "name": "stdout",
     "output_type": "stream",
     "text": [
      "mummdHktaZVtTHUKKJFpejX53jXWhyVn4p\n",
      "mrfytxUqgkPQNPPMd9yMrsi5ZN7JaswZbf\n",
      "muWfEiXfUYzNDmW6xGsPUar6DoepttRq2b\n"
     ]
    }
   ],
   "source": [
    "# lets create 3 new addresses\n",
    "from bitcoinrpc.authproxy import AuthServiceProxy\n",
    "\n",
    "rpc_user = \"pawel\"\n",
    "rpc_password = \"qqqwwweee\"\n",
    "rpc_port = \"18332\"  # Default port for Bitcoin Core RPC is 8332. Use 18332 for testnet.\n",
    "rpc_connection = AuthServiceProxy(f\"http://{rpc_user}:{rpc_password}@localhost:{rpc_port}\")\n",
    "\n",
    "addr1 = rpc_connection.getnewaddress('', 'legacy')\n",
    "addr2 = rpc_connection.getnewaddress('', 'legacy')\n",
    "addr3 = rpc_connection.getnewaddress('', 'legacy')\n",
    "\n",
    "print(addr1)\n",
    "print(addr2)\n",
    "print(addr3)\n"
   ]
  },
  {
   "cell_type": "code",
   "execution_count": null,
   "metadata": {},
   "outputs": [],
   "source": [
    "addr1 = 'mummdHktaZVtTHUKKJFpejX53jXWhyVn4p'\n",
    "addr2 = 'mrfytxUqgkPQNPPMd9yMrsi5ZN7JaswZbf'\n",
    "addr3 = 'muWfEiXfUYzNDmW6xGsPUar6DoepttRq2b'\n"
   ]
  },
  {
   "cell_type": "markdown",
   "metadata": {},
   "source": [
    "the generated addresses are the following:\n",
    "\n",
    "mummdHktaZVtTHUKKJFpejX53jXWhyVn4p\n",
    "mrfytxUqgkPQNPPMd9yMrsi5ZN7JaswZbf\n",
    "muWfEiXfUYzNDmW6xGsPUar6DoepttRq2b"
   ]
  },
  {
   "cell_type": "markdown",
   "metadata": {},
   "source": [
    "Now we will generate receiving P2SH address in 2 different ways.\n",
    "1. Manually - we will read the corresponding public keys from Bitcoin Core and create the address manually\n",
    "2. Using the Bitcoin Core - we will use the addmultisigaddress command to create the address\n",
    "\n",
    "Info: we could have created the private keys also manually, as shown P2PKH_part1 notebook, but we will use the Bitcoin Core to generate them."
   ]
  },
  {
   "cell_type": "code",
   "execution_count": 26,
   "metadata": {},
   "outputs": [
    {
     "name": "stdout",
     "output_type": "stream",
     "text": [
      "0208de440a749d849d9536f83e521380e6fb399f6cb8cdae0d182f2fd13eda1d09\n",
      "03f4c3ab04b995a1e1e543dcc3ea0ea812b00621ffb201ee30b91c43fd3c6f3ae3\n",
      "03c6d5dffd49224bc9e8d3c31bbeef7638444f69c8a71b67a4fa36eeeaf7a7f56f\n"
     ]
    }
   ],
   "source": [
    "rpc_user = \"pawel\"\n",
    "rpc_password = \"qqqwwweee\"\n",
    "rpc_port = \"18332\"  # Default port for Bitcoin Core RPC is 8332. Use 18332 for testnet.\n",
    "rpc_connection = AuthServiceProxy(f\"http://{rpc_user}:{rpc_password}@localhost:{rpc_port}\")\n",
    "\n",
    "pubkey1 = rpc_connection.getaddressinfo(addr1)['pubkey']\n",
    "pubkey2 = rpc_connection.getaddressinfo(addr2)['pubkey']\n",
    "pubkey3 = rpc_connection.getaddressinfo(addr3)['pubkey']\n",
    "\n",
    "# calc len of pubkey and add it to the beginning of pubkey\n",
    "pubkey1_len = hex(len(pubkey1)//2)[2:] + pubkey1\n",
    "pubkey2_len = hex(len(pubkey2)//2)[2:] + pubkey2\n",
    "pubkey3_len = hex(len(pubkey3)//2)[2:] + pubkey3\n",
    " \n",
    "\n",
    "\n",
    "print(pubkey1)\n",
    "print(pubkey2)\n",
    "print(pubkey3)"
   ]
  },
  {
   "cell_type": "code",
   "execution_count": 36,
   "metadata": {},
   "outputs": [
    {
     "name": "stdout",
     "output_type": "stream",
     "text": [
      "52210208de440a749d849d9536f83e521380e6fb399f6cb8cdae0d182f2fd13eda1d092103f4c3ab04b995a1e1e543dcc3ea0ea812b00621ffb201ee30b91c43fd3c6f3ae32103c6d5dffd49224bc9e8d3c31bbeef7638444f69c8a71b67a4fa36eeeaf7a7f56f53ae\n"
     ]
    }
   ],
   "source": [
    "# now we can create our 2 of 3 multi-sig address\n",
    "# OP_m pubkey1 OP_n OP_n pubkey2 OP_n OP_n pubkey3 OP_n OP_n OP_n CHECKMULTISIG\n",
    "OP_n = '53'\n",
    "OP_m = '52'\n",
    "OP_CHECKMULTISIG = 'ae'\n",
    "\n",
    "raw_multiSig_Addr = OP_m + pubkey1_len + pubkey2_len +  pubkey3_len + OP_n + OP_CHECKMULTISIG\n",
    "\n",
    "print(raw_multiSig_Addr)"
   ]
  },
  {
   "cell_type": "code",
   "execution_count": 30,
   "metadata": {},
   "outputs": [
    {
     "name": "stdout",
     "output_type": "stream",
     "text": [
      "2N6ShAbXFdLsfX8EvewWqg5kT4ktaiTF3LN\n"
     ]
    }
   ],
   "source": [
    "# now we just need to hash it, add prefix for testnet and encode it to base58\n",
    "# we will use this function to do it\n",
    "import hashlib\n",
    "import base58\n",
    "\n",
    "def public_key_to_address(public_key, prefix):\n",
    "\n",
    "    public_key_bytes = bytes.fromhex(public_key)\n",
    "    # Perform SHA-256 hashing on the public key\n",
    "    sha256_public_key = hashlib.sha256(public_key_bytes).digest()\n",
    "    \n",
    "    # Perform RIPEMD-160 hashing on the result of SHA-256\n",
    "    ripemd160 = hashlib.new('ripemd160')\n",
    "    ripemd160.update(sha256_public_key)\n",
    "    \n",
    "    # prefix - Adding network byte to mainnet public key (0x00 for Main Network)\n",
    "    extended_ripemd160_result = prefix + ripemd160.digest()\n",
    "    \n",
    "    # Double SHA-256 to get checksum\n",
    "    first_sha256 = hashlib.sha256(extended_ripemd160_result).digest()\n",
    "    second_sha256 = hashlib.sha256(first_sha256).digest()\n",
    "    \n",
    "    # Adding checksum to extended RIPEMD-160 result\n",
    "    final_binary_data = extended_ripemd160_result + second_sha256[:4]\n",
    "    #print('final_binary_data: ', final_binary_data.hex())\n",
    "    # Converting final result into a base58 string using Bitcoin's alphabet\n",
    "    bitcoin_address = base58.b58encode(final_binary_data)\n",
    "    return bitcoin_address.decode('utf-8')\n",
    "\n",
    "\n",
    "prefix = b'\\xC4' # Testnet script hash prefix\n",
    "multiSig_Addr = public_key_to_address(raw_multiSig_Addr, prefix)\n",
    "\n",
    "print(multiSig_Addr)"
   ]
  },
  {
   "cell_type": "markdown",
   "metadata": {},
   "source": [
    "This is the address that we created:\n",
    "2N6ShAbXFdLsfX8EvewWqg5kT4ktaiTF3LN"
   ]
  },
  {
   "cell_type": "markdown",
   "metadata": {},
   "source": [
    "Now lets create the same address using Bitcoin Core.\n",
    "This is example of the command for console\n",
    "\n",
    "addmultisigaddress 2 '[\"02349cc51f7c284efbeb0b6084aa7e3f8001eb38efb22a7d6e41d6042f05475b84\", \"037bbf5b4db523853ae8021f9702deda51db31a02ba3f7aadf383027a7527e8042\", \"029c77e41350c219b5500ad9ee04c0a1220e39b50bd36f0d27ea03bd3f32ff9a5a\"]' 'mymulti' 'legacy'"
   ]
  },
  {
   "cell_type": "code",
   "execution_count": 32,
   "metadata": {},
   "outputs": [
    {
     "name": "stdout",
     "output_type": "stream",
     "text": [
      "2N6ShAbXFdLsfX8EvewWqg5kT4ktaiTF3LN\n"
     ]
    }
   ],
   "source": [
    "rpc_user = \"pawel\"\n",
    "rpc_password = \"qqqwwweee\"\n",
    "rpc_port = \"18332\"  # Default port for Bitcoin Core RPC is 8332. Use 18332 for testnet.\n",
    "rpc_connection = AuthServiceProxy(f\"http://{rpc_user}:{rpc_password}@localhost:{rpc_port}\")\n",
    "\n",
    "\n",
    "required_signatures = 2\n",
    "keys = [addr1, addr2, addr3]\n",
    "label = 'mymulti2'\n",
    "address_type = 'legacy'\n",
    "\n",
    "multiSig_Addr_2 = rpc_connection.addmultisigaddress(required_signatures, keys, label, address_type)['address']\n",
    "\n",
    "print(multiSig_Addr_2)"
   ]
  },
  {
   "cell_type": "markdown",
   "metadata": {},
   "source": [
    "So in both ways we got the same address\n",
    "- 2N6ShAbXFdLsfX8EvewWqg5kT4ktaiTF3LN"
   ]
  },
  {
   "cell_type": "markdown",
   "metadata": {},
   "source": [
    "Now we send 0.0048 btc to the address 2N6ShAbXFdLsfX8EvewWqg5kT4ktaiTF3LN\n",
    "TX_ID\n",
    "b19f125d02e2dfaf637109399a1b1cac1a5f53aa71fc0032fb30ee9add421db4"
   ]
  },
  {
   "cell_type": "markdown",
   "metadata": {},
   "source": [
    "Now we will construct manually the transaction that will spend the funds from the multisig address.\n",
    "It is important to note that to spend the transaction we need to reveal ALL public keys (actually unhashed script hash). So even that in case 2 of 3 multisig we need only 2 signatures, we need to reveal all 3 public keys. So every participant in creation of the multisig address should save all public keys. Otherwise if some participanta are not availble or have lost his private key/public key we will not be able to spend the funds, even if we have the required number of private keys.\n"
   ]
  },
  {
   "cell_type": "markdown",
   "metadata": {},
   "source": [
    "One diffrence to the P2PKH transaction, is that all participants sign the same raw transaction (not like in P2PKH where the temp. ScriptSig is replaced with previous ScriptPubkey for the tx_id we are signing and all others temp. ScriptSig is empty)"
   ]
  },
  {
   "cell_type": "markdown",
   "metadata": {},
   "source": [
    "I have created the new address and will try to send 0.0047 btc from our 2 of 3 multisig address to the new address.\n",
    "New address:\n",
    "mqNsJTu3paf47i32GxrERSuZ68p1XchrYw"
   ]
  },
  {
   "cell_type": "markdown",
   "metadata": {},
   "source": [
    "The basic structure of the P2SH transaction is the same:\n",
    "rawTx_toSign = (\n",
    "    version             # 4 bytes: Transaction version number\n",
    "    + tx_in_count      # Variable length: Number of transaction inputs\n",
    "    + txid             # 32 bytes: Transaction ID of the UTXO being spent\n",
    "    + vout             # 4 bytes: Index of the UTXO in the transaction\n",
    "    + scriptSig_len_t   # Variable length: Length of the scriptSig\n",
    "    + scriptSig_t      # Variable length: Script that provides data to satisfy the UTXO's locking script\n",
    "    + sequence         # 4 bytes: Sequence number\n",
    "    + tx_out_count     # Variable length: Number of transaction outputs\n",
    "    + value            # 8 bytes: Amount of satoshis to send to the recipient\n",
    "    + scriptPubKey_len # Variable length: Length of the scriptPubKey\n",
    "    + scriptPubKey     # Variable length: Locking script specifying conditions to spend the output\n",
    "    + locktime         # 4 bytes: Time or block number when the transaction becomes valid\n",
    "    + sighash_type     # 4 bytes: Signature hash type (only if signing)\n",
    ")\n",
    "\n",
    "The difference to P2PKH transaction is that we replace the temp. ScriptSig with the unhashed spending script (scriptPubKey) of the multisig address:\n",
    "OP_m pubkey1 OP_n OP_n pubkey2 OP_n OP_n pubkey3 OP_n OP_n OP_n CHECKMULTISIG\n",
    "\n",
    "After we sign the raw transaction with required number of private keys it is important to put the signatures in the correct order - the signatures should be in the same order as the public keys in the spending script.\n"
   ]
  },
  {
   "cell_type": "code",
   "execution_count": 42,
   "metadata": {},
   "outputs": [],
   "source": [
    "# lets define the variables we will need to create a raw transaction\n",
    "version = '02000000'\n",
    "\n",
    "tx_hash = 'b19f125d02e2dfaf637109399a1b1cac1a5f53aa71fc0032fb30ee9add421db4'\n",
    "txid = bytes.fromhex(tx_hash)[::-1].hex()\n",
    "\n",
    "tx_in_count = \"01\"\n",
    "\n",
    "vout = \"00000000\"\n",
    "sequence = \"fdffffff\"\n",
    "tx_out_count = \"01\"\n",
    "locktime = \"00000000\"\n",
    "sig_hash = \"01000000\""
   ]
  },
  {
   "cell_type": "code",
   "execution_count": 44,
   "metadata": {},
   "outputs": [],
   "source": [
    "# the temp. ScriptSig for signing is the unhashed scriptPubkey with leading length\n",
    "\n",
    "ScriptSig_t = bytes.fromhex(hex(len(raw_multiSig_Addr)//2)[2:]).hex() + raw_multiSig_Addr\n"
   ]
  },
  {
   "cell_type": "code",
   "execution_count": 45,
   "metadata": {},
   "outputs": [
    {
     "name": "stdout",
     "output_type": "stream",
     "text": [
      "1976a9146c29c323a0276150f9321b9a4bae226bdf56b90a88ac\n"
     ]
    }
   ],
   "source": [
    "# we want to spemd to P2PKH address so we need to create a scriptPubkey for it\n",
    "# OP_DUP OP_HASH160 <pubKeyHash> OP_EQUALVERIFY OP_CHECKSIG\n",
    "# mqNsJTu3paf47i32GxrERSuZ68p1XchrYw\n",
    "\n",
    "SciptPubkey = '76a9146c29c323a0276150f9321b9a4bae226bdf56b90a88ac'\n",
    "\n",
    "ScriptPubKey = bytes.fromhex(hex(len(SciptPubkey)//2)[2:]).hex() + SciptPubkey\n",
    "\n",
    "print(ScriptPubKey)\n"
   ]
  },
  {
   "cell_type": "code",
   "execution_count": 41,
   "metadata": {},
   "outputs": [
    {
     "name": "stdout",
     "output_type": "stream",
     "text": [
      "f02b070000000000\n"
     ]
    }
   ],
   "source": [
    "# now lets convert 0.0047 btc that we wand to spend to satoshi\n",
    "btc_value = 0.0047\n",
    "\n",
    "# Convert BTC to satoshi (1 BTC = 100,000,000 satoshis)\n",
    "satoshis = int(btc_value * 100_000_000)\n",
    "\n",
    "# Convert to 8-byte little endian format\n",
    "value = satoshis.to_bytes(8, 'little').hex().rjust(16, '0')\n",
    "\n",
    "# Print the result\n",
    "print(value)"
   ]
  },
  {
   "cell_type": "code",
   "execution_count": 55,
   "metadata": {},
   "outputs": [
    {
     "name": "stdout",
     "output_type": "stream",
     "text": [
      "0200000001b41d42dd9aee30fb3200fc71aa535f1aac1c1b9a39097163afdfe2025d129fb1000000006952210208de440a749d849d9536f83e521380e6fb399f6cb8cdae0d182f2fd13eda1d092103f4c3ab04b995a1e1e543dcc3ea0ea812b00621ffb201ee30b91c43fd3c6f3ae32103c6d5dffd49224bc9e8d3c31bbeef7638444f69c8a71b67a4fa36eeeaf7a7f56f53aefdffffff01f02b0700000000001976a9146c29c323a0276150f9321b9a4bae226bdf56b90a88ac0000000001000000\n",
      "cb83b003ad2d06317dd9473d0e4b7ea8c4ec6f683d34ecba902e8ef9f9fbfb6a\n"
     ]
    }
   ],
   "source": [
    "# now we can create our raw transaction to sign\n",
    "rawTx_toSign = (\n",
    "    version             # 4 bytes: Transaction version number\n",
    "    + tx_in_count      # Variable length: Number of transaction inputs\n",
    "    + txid             # 32 bytes: Transaction ID of the UTXO being spent\n",
    "    + vout             # 4 bytes: Index of the UTXO in the transaction   \n",
    "    + ScriptSig_t      # Variable length: Script that provides data to satisfy the UTXO's locking script\n",
    "    + sequence         # 4 bytes: Sequence number\n",
    "    + tx_out_count     # Variable length: Number of transaction outputs\n",
    "    + value            # 8 bytes: Amount of satoshis to send to the recipienty\n",
    "    + ScriptPubKey     # Variable length: Locking script specifying conditions to spend the output\n",
    "    + locktime         # 4 bytes: Time or block number when the transaction becomes valid\n",
    "    + sig_hash     # 4 bytes: Signature hash type (only if signing)\n",
    ")\n",
    "\n",
    "print(rawTx_toSign)\n",
    "\n",
    "# but we are signing the hash of the transaction, not the transaction itself\n",
    "# so lets hash it\n",
    "tx_toSign_hash = hashlib.sha256(hashlib.sha256(bytes.fromhex(rawTx_toSign)).digest()).digest().hex()\n",
    "\n",
    "print(tx_toSign_hash)"
   ]
  },
  {
   "cell_type": "markdown",
   "metadata": {},
   "source": [
    "This is the raw transaction that we will sign:\n",
    "0200000001b41d42dd9aee30fb3200fc71aa535f1aac1c1b9a39097163afdfe2025d129fb1000000006952210208de440a749d849d9536f83e521380e6fb399f6cb8cdae0d182f2fd13eda1d092103f4c3ab04b995a1e1e543dcc3ea0ea812b00621ffb201ee30b91c43fd3c6f3ae32103c6d5dffd49224bc9e8d3c31bbeef7638444f69c8a71b67a4fa36eeeaf7a7f56f53aefdffffff01f02b0700000000001976a9146c29c323a0276150f9321b9a4bae226bdf56b90a88ac0000000001000000\n",
    "\n",
    "hash:\n",
    "cb83b003ad2d06317dd9473d0e4b7ea8c4ec6f683d34ecba902e8ef9f9fbfb6a"
   ]
  },
  {
   "cell_type": "code",
   "execution_count": 48,
   "metadata": {},
   "outputs": [
    {
     "name": "stdout",
     "output_type": "stream",
     "text": [
      "cPnov3M9bHJuEJrjRnm38sQFqZxESjPLno5yw71cp84tHpXFmfFi\n",
      "cP698ES3fGH4vXLFjsW8EVhFX2aUfTZnLKq75HaKJ8nVVnv1d2eC\n"
     ]
    }
   ],
   "source": [
    "# before signing we need to get the private key (if we have not generated it manually) and transfrom it from WIF format to hex\n",
    "from bitcoinrpc.authproxy import AuthServiceProxy\n",
    "rpc_user = \"pawel\"\n",
    "rpc_password = \"qqqwwweee\"\n",
    "rpc_port = \"18332\"  # Default port for Bitcoin Core RPC is 8332. Use 18332 for testnet.\n",
    "rpc_connection = AuthServiceProxy(f\"http://{rpc_user}:{rpc_password}@localhost:{rpc_port}\")\n",
    "\n",
    "\n",
    "privKeyWIF_1 = rpc_connection.dumpprivkey(addr1)\n",
    "privKeyWIF_2 = rpc_connection.dumpprivkey(addr2)\n",
    "\n",
    "print(privKeyWIF_1)\n",
    "print(privKeyWIF_2)\n",
    "\n"
   ]
  },
  {
   "cell_type": "code",
   "execution_count": 50,
   "metadata": {},
   "outputs": [
    {
     "name": "stdout",
     "output_type": "stream",
     "text": [
      "41e7545cda38672b73c0822c65fec8841ae196862d3b0e61b73448739850cad6\n",
      "2cfb68a220534a24efa5b4085d868b48ca7625024814ce5b78488f4167a09be9\n"
     ]
    }
   ],
   "source": [
    "# lets convert it to hex\n",
    "import hashlib\n",
    "import base58 \n",
    "\n",
    "def WIF_to_hex(privKeyWIF):\n",
    "    # 1. Decode the WIF format using Base58\n",
    "    decoded = base58.b58decode(privKeyWIF)\n",
    "\n",
    "    # 2. Strip and validate the checksum\n",
    "    extended_key = decoded[:-4]  # Strip the checksum\n",
    "    checksum = decoded[-4:]\n",
    "\n",
    "    # Verify the checksum\n",
    "    if checksum != hashlib.sha256(hashlib.sha256(extended_key).digest()).digest()[:4]:\n",
    "        raise ValueError(\"Invalid WIF checksum!\")\n",
    "\n",
    "    # 3. Remove the version byte\n",
    "    extended_key = extended_key[1:]\n",
    "\n",
    "    # 4. Check and remove the 01 byte for compressed pubKey (if present)\n",
    "    if extended_key[-1] == 1:  # Checking if the last byte is 0x01\n",
    "        privKey_hex = extended_key[:-1].hex()  # Removing the 01 byte\n",
    "    else:\n",
    "        privKey_hex = extended_key.hex()\n",
    "\n",
    "    return privKey_hex\n",
    "\n",
    "privKey_hex_1 = WIF_to_hex(privKeyWIF_1)\n",
    "privKey_hex_2 = WIF_to_hex(privKeyWIF_2)\n",
    "\n",
    "print(privKey_hex_1)\n",
    "print(privKey_hex_2)"
   ]
  },
  {
   "cell_type": "code",
   "execution_count": 78,
   "metadata": {},
   "outputs": [
    {
     "name": "stdout",
     "output_type": "stream",
     "text": [
      "cPnov3M9bHJuEJrjRnm38sQFqZxESjPLno5yw71cp84tHpXFmfFi\n",
      "cP698ES3fGH4vXLFjsW8EVhFX2aUfTZnLKq75HaKJ8nVVnv1d2eC\n"
     ]
    }
   ],
   "source": [
    "print(privKeyWIF_1)\n",
    "print(privKeyWIF_2)"
   ]
  },
  {
   "cell_type": "code",
   "execution_count": 66,
   "metadata": {},
   "outputs": [
    {
     "name": "stdout",
     "output_type": "stream",
     "text": [
      "483045022100996c6a8a0ea4310e32d3a1cd62a17dd9aa6d129c900d37c069d3c2fffff690af022016bfceb29ae988083d301513a3b24961231705a5594922209a1c0ea2b587ab8c01\n",
      "47304402205de3046ee25788e0f72a5bd57ec6e1367ed9d807780d199300102b159ed58db202206a4c4be21bda4291f3e1921ce1469611f3171e37e92b07b195fa6fda4930c3e601\n"
     ]
    }
   ],
   "source": [
    "# now we can sign our raw transaction\n",
    "from coincurve import PrivateKey\n",
    "\n",
    "# signing key from private key deterministically\n",
    "\n",
    "def signTx(rawTx_toSign_hash, privKey_hex):\n",
    "    bytes_to_sign = bytes.fromhex(rawTx_toSign_hash)\n",
    "    privkey = PrivateKey(bytes.fromhex(privKey_hex))\n",
    "    signature = privkey.sign(bytes_to_sign, hasher=None)\n",
    "\n",
    "    # also to signale that we used SigHash all we add 01 at the end\n",
    "    signature += bytes.fromhex('01')\n",
    "\n",
    "    scriptSig = signature.hex()\n",
    "    Sig_len = hex(len(signature))[2:]\n",
    "    scriptSig = Sig_len + scriptSig\n",
    "\n",
    "    return scriptSig\n",
    "\n",
    "scriptSig_1 = signTx(tx_toSign_hash, privKey_hex_1)\n",
    "scriptSig_2 = signTx(tx_toSign_hash, privKey_hex_2)\n",
    "\n",
    "print(scriptSig_1)\n",
    "print(scriptSig_2)"
   ]
  },
  {
   "cell_type": "markdown",
   "metadata": {},
   "source": [
    "In case if the ScriptSig >= 253 bytes, we need to use follwoing format for the tx:\n",
    "fd + 4 bytes length in little endian\n",
    "\n",
    "- So our 253 bytes length should look like this:\n",
    "'fd' + 'fd00'"
   ]
  },
  {
   "cell_type": "markdown",
   "metadata": {},
   "source": [
    "- 2 important things to note:\n",
    "1. We need to put '00' at the start of the scriptSig, because of the bug in the script execution in bitcoin core\n",
    "2. If the unhashed multisig address (OP codes and public keys) is longer as 75 bytes, we need to use OP 'Push Data' - '4c'"
   ]
  },
  {
   "cell_type": "code",
   "execution_count": 86,
   "metadata": {},
   "outputs": [
    {
     "name": "stdout",
     "output_type": "stream",
     "text": [
      "253\n"
     ]
    }
   ],
   "source": [
    "# now we will build the full scriptSig which consists of the signatures and unhashed multisig address\n",
    "scriptSig = '00' + scriptSig_1 + scriptSig_2 + '4c' + bytes.fromhex(hex(len(raw_multiSig_Addr)//2)[2:]).hex()  + raw_multiSig_Addr\n",
    "\n",
    "# but we need to correctly calculate the length of the scriptSig\n",
    "# bitcoin uses var length, see the function below\n",
    "hex_string = hex(len(scriptSig)//2)[2:]\n",
    "integer_value = int(hex_string, 16)\n",
    "\n",
    "print(integer_value)"
   ]
  },
  {
   "cell_type": "code",
   "execution_count": 87,
   "metadata": {},
   "outputs": [
    {
     "name": "stdout",
     "output_type": "stream",
     "text": [
      "fdfd00\n"
     ]
    }
   ],
   "source": [
    "def int_to_varint(n):\n",
    "    if n < 0xfd:\n",
    "        return bytes([n])\n",
    "    elif n <= 0xffff:\n",
    "        return b'\\xfd' + n.to_bytes(2, 'little')\n",
    "    elif n <= 0xffffffff:\n",
    "        return b'\\xfe' + n.to_bytes(4, 'little')\n",
    "    else:\n",
    "        return b'\\xff' + n.to_bytes(8, 'little')\n",
    "\n",
    "number = 253\n",
    "varint_representation = int_to_varint(integer_value)\n",
    "print(varint_representation.hex())"
   ]
  },
  {
   "cell_type": "code",
   "execution_count": 89,
   "metadata": {},
   "outputs": [],
   "source": [
    "scriptSig = varint_representation.hex() + scriptSig"
   ]
  },
  {
   "cell_type": "code",
   "execution_count": null,
   "metadata": {},
   "outputs": [],
   "source": []
  },
  {
   "cell_type": "code",
   "execution_count": 90,
   "metadata": {},
   "outputs": [
    {
     "name": "stdout",
     "output_type": "stream",
     "text": [
      "0200000001b41d42dd9aee30fb3200fc71aa535f1aac1c1b9a39097163afdfe2025d129fb100000000fdfd0000483045022100996c6a8a0ea4310e32d3a1cd62a17dd9aa6d129c900d37c069d3c2fffff690af022016bfceb29ae988083d301513a3b24961231705a5594922209a1c0ea2b587ab8c0147304402205de3046ee25788e0f72a5bd57ec6e1367ed9d807780d199300102b159ed58db202206a4c4be21bda4291f3e1921ce1469611f3171e37e92b07b195fa6fda4930c3e6014c6952210208de440a749d849d9536f83e521380e6fb399f6cb8cdae0d182f2fd13eda1d092103f4c3ab04b995a1e1e543dcc3ea0ea812b00621ffb201ee30b91c43fd3c6f3ae32103c6d5dffd49224bc9e8d3c31bbeef7638444f69c8a71b67a4fa36eeeaf7a7f56f53aefdffffff01f02b0700000000001976a9146c29c323a0276150f9321b9a4bae226bdf56b90a88ac00000000\n"
     ]
    }
   ],
   "source": [
    "# now we can create our raw transaction\n",
    "# now we can create our raw transaction to sign\n",
    "rawTx_toSign = (\n",
    "    version             # 4 bytes: Transaction version number\n",
    "    + tx_in_count      # Variable length: Number of transaction inputs\n",
    "    + txid             # 32 bytes: Transaction ID of the UTXO being spent\n",
    "    + vout             # 4 bytes: Index of the UTXO in the transaction   \n",
    "    + scriptSig      # Variable length: Script that provides data to satisfy the UTXO's locking script\n",
    "    + sequence         # 4 bytes: Sequence number\n",
    "    + tx_out_count     # Variable length: Number of transaction outputs\n",
    "    + value            # 8 bytes: Amount of satoshis to send to the recipienty\n",
    "    + ScriptPubKey     # Variable length: Locking script specifying conditions to spend the output\n",
    "    + locktime         # 4 bytes: Time or block number when the transaction becomes valid\n",
    ")\n",
    "print(rawTx_toSign)"
   ]
  },
  {
   "cell_type": "markdown",
   "metadata": {},
   "source": [
    "This transaction has been accepted by the network and we can see it in the blockchain:\n",
    "70fd5b6ea72172ffe79844160ce245a458a247119d779394821a787b091daaa6"
   ]
  },
  {
   "cell_type": "markdown",
   "metadata": {},
   "source": [
    "0200000001b41d42dd9aee30fb3200fc71aa535f1aac1c1b9a39097163afdfe2025d129fb100000000fdfd0000483045022100996c6a8a0ea4310e32d3a1cd62a17dd9aa6d129c900d37c069d3c2fffff690af022016bfceb29ae988083d301513a3b24961231705a5594922209a1c0ea2b587ab8c0147304402205de3046ee25788e0f72a5bd57ec6e1367ed9d807780d199300102b159ed58db202206a4c4be21bda4291f3e1921ce1469611f3171e37e92b07b195fa6fda4930c3e6014c6952210208de440a749d849d9536f83e521380e6fb399f6cb8cdae0d182f2fd13eda1d092103f4c3ab04b995a1e1e543dcc3ea0ea812b00621ffb201ee30b91c43fd3c6f3ae32103c6d5dffd49224bc9e8d3c31bbeef7638444f69c8a71b67a4fa36eeeaf7a7f56f53aefdffffff01f02b0700000000001976a9146c29c323a0276150f9321b9a4bae226bdf56b90a88ac00000000"
   ]
  }
 ],
 "metadata": {
  "kernelspec": {
   "display_name": "btc123",
   "language": "python",
   "name": "python3"
  },
  "language_info": {
   "codemirror_mode": {
    "name": "ipython",
    "version": 3
   },
   "file_extension": ".py",
   "mimetype": "text/x-python",
   "name": "python",
   "nbconvert_exporter": "python",
   "pygments_lexer": "ipython3",
   "version": "3.9.6"
  },
  "orig_nbformat": 4
 },
 "nbformat": 4,
 "nbformat_minor": 2
}
