{
 "cells": [
  {
   "cell_type": "markdown",
   "metadata": {},
   "source": [
    "In the part3 we will construct a P2PKH transaction with sereval inputs and outsputs. We will construct a transaction with 2 inputs and three outputs.\n",
    "Intersting fact is that that if we spend coins from some transaction we have to spend them all at once, because the difference input - output will be transfered to the miner as reward. If we send bitcoin through Bitcoin Core GUI (as almost all other wallets) this will be handled automatically. The wallet software will create onther address and transfer the difference to it (minus miner fee, for the transaction to be accepted). Anyhow if we manually create raw transaction or even use 'createrawtransaction' command in Bitcoin Core we have to handle this manually. You have probably heard the concept of the change address which comes from this fact\n",
    "Also the transaction that we can spend are called in Bitcoin UTXO (Unspent Transaction Output)\n",
    "- It seems that coincurve still somehow produces sometimes different signatures as Bitcoin Core. So the only way is to test my transaction is to sent it "
   ]
  },
  {
   "cell_type": "code",
   "execution_count": 3,
   "metadata": {},
   "outputs": [
    {
     "name": "stdout",
     "output_type": "stream",
     "text": [
      "mnNSXkYQiFz73Hi7KnDYgNCzqvpKdVa355\n",
      "mqoZ1kdfmomVKMgFvZmBTQ3e2dRcho4N2Z\n",
      "mhSMUAMQGGS9WRWx3XcKhFphhLmvuipqqo\n"
     ]
    }
   ],
   "source": [
    "# lets create 3 new recipient addresses. We will use Bitcoin Core for this, but it could be also done manually as described in the part1\n",
    "from bitcoinrpc.authproxy import AuthServiceProxy\n",
    "\n",
    "rpc_user = \"pawel\"\n",
    "rpc_password = \"qqqwwweee\"\n",
    "rpc_port = \"18332\"  # Default port for Bitcoin Core RPC is 8332. Use 18332 for testnet.\n",
    "rpc_connection = AuthServiceProxy(f\"http://{rpc_user}:{rpc_password}@localhost:{rpc_port}\")\n",
    "\n",
    "addr1 = rpc_connection.getnewaddress('', 'legacy')\n",
    "addr2 = rpc_connection.getnewaddress('', 'legacy')\n",
    "addr3 = rpc_connection.getnewaddress('', 'legacy')\n",
    "\n",
    "print(addr1)\n",
    "print(addr2)\n",
    "print(addr3)"
   ]
  },
  {
   "cell_type": "markdown",
   "metadata": {},
   "source": [
    "mnNSXkYQiFz73Hi7KnDYgNCzqvpKdVa355\n",
    "mqoZ1kdfmomVKMgFvZmBTQ3e2dRcho4N2Z\n",
    "mhSMUAMQGGS9WRWx3XcKhFphhLmvuipqqo\n"
   ]
  },
  {
   "cell_type": "markdown",
   "metadata": {},
   "source": [
    "Now we have generated 3 recipient addresses\n",
    "mnNSXkYQiFz73Hi7KnDYgNCzqvpKdVa355\n",
    "mqoZ1kdfmomVKMgFvZmBTQ3e2dRcho4N2Z\n",
    "mhSMUAMQGGS9WRWx3XcKhFphhLmvuipqqo"
   ]
  },
  {
   "cell_type": "markdown",
   "metadata": {},
   "source": [
    "Lets look agaim at the structure of raw transaction\n",
    "rawTx_toSign = (\n",
    "    version             # 4 bytes: Transaction version number\n",
    "    + tx_in_count      # Variable length: Number of transaction inputs\n",
    "    + txid             # 32 bytes: Transaction ID of the UTXO being spent\n",
    "    + vout             # 4 bytes: Index of the UTXO in the transaction\n",
    "    + scriptSig_len_t   # Variable length: Length of the scriptSig\n",
    "    + scriptSig_t      # Variable length: Script that provides data to satisfy the UTXO's locking script\n",
    "    + sequence         # 4 bytes: Sequence number\n",
    "    + tx_out_count     # Variable length: Number of transaction outputs\n",
    "    + value            # 8 bytes: Amount of satoshis to send to the recipient\n",
    "    + scriptPubKey_len # Variable length: Length of the scriptPubKey\n",
    "    + scriptPubKey     # Variable length: Locking script specifying conditions to spend the output\n",
    "    + locktime         # 4 bytes: Time or block number when the transaction becomes valid\n",
    "    + sighash_type     # 4 bytes: Signature hash type (only if signing)\n",
    ")\n",
    "\n",
    "As explained in the part2 before we have real signature in the P2PKH transaction we put there the locking condition of the input transaction(pubKey script) in the ScripitSig part (thats why i put *_t in the name to indicate thta it is temporary). After we sign the transaction we will put the real signature in the SigScript part (as I said before it is the same what Bitcoin Core software is also doing to check the signature). \n",
    "\n",
    "So lets see which parts are missing, derive them and construct the raw transaction\n",
    "\n",
    "- TXID\n",
    "- Vout\n",
    "- ScriptSig\n",
    "- Value\n",
    "- ScriptPubKey"
   ]
  },
  {
   "cell_type": "code",
   "execution_count": 12,
   "metadata": {},
   "outputs": [],
   "source": [
    "# lets at first define the values for the known variables. \n",
    "# Remember that we are constructiong a P2PKH transaction with 2 inputs and 3 outputs\n",
    "version = '02000000'\n",
    "tx_in_count = '02'\n",
    "sequence = 'fdffffff'\n",
    "tx_out_count = '03'\n",
    "locktime = '00000000'\n",
    "sig_hash_type = '01000000'"
   ]
  },
  {
   "cell_type": "code",
   "execution_count": 7,
   "metadata": {},
   "outputs": [
    {
     "name": "stdout",
     "output_type": "stream",
     "text": [
      "Address: mnPXsbCFtQbLrpAwQUDETcpUApDcjamSmB\n",
      "Transaction ID: ee3175c87c04a0ec16bf683d2f733289a60b9f8aabf932afd673b792c979b913\n",
      "Output Index: 2\n",
      "Script Public Key: 76a9144b61951cee51ecc3c23956b828ebe84068542f2f88ac\n",
      "Value: 0.00900000 BTC\n",
      "-------------------------------\n",
      "Address: mwQ2jDbA6Yzt35r4pcRuCViAwzyyySC4oK\n",
      "Transaction ID: bcffee2198135c5d6be186aab42d261977bbd2d3fe4d9f0cb933a35b762507a3\n",
      "Output Index: 0\n",
      "Script Public Key: 76a914ae32cd505abe9338e792df038d288485c0b601d788ac\n",
      "Value: 0.00590000 BTC\n",
      "-------------------------------\n",
      "Address: n39Zw3LQMMWWKqW4aeowTQM3pgWVvE5uFt\n",
      "Transaction ID: bcffee2198135c5d6be186aab42d261977bbd2d3fe4d9f0cb933a35b762507a3\n",
      "Output Index: 1\n",
      "Script Public Key: 76a914ed475d6cf80598ffbb2d4af64f0421cf553952e788ac\n",
      "Value: 0.00590000 BTC\n",
      "-------------------------------\n",
      "Address: mmgfR5aXVMYJYAJSo8hJbFQzkamYH6Fxs3\n",
      "Transaction ID: bcffee2198135c5d6be186aab42d261977bbd2d3fe4d9f0cb933a35b762507a3\n",
      "Output Index: 2\n",
      "Script Public Key: 76a91443a6d315d938d80025b86c211edc1b72aef2540388ac\n",
      "Value: 0.00590000 BTC\n",
      "-------------------------------\n"
     ]
    }
   ],
   "source": [
    "# lets see which transaction we can spend (if you have less then 2 create a new one)\n",
    "rpc_user = \"pawel\"\n",
    "rpc_password = \"qqqwwweee\"\n",
    "rpc_port = \"18332\"  # Default port for Bitcoin Core RPC is 8332. Use 18332 for testnet.\n",
    "rpc_connection = AuthServiceProxy(f\"http://{rpc_user}:{rpc_password}@localhost:{rpc_port}\")\n",
    "\n",
    "utxos = rpc_connection.listunspent()\n",
    "\n",
    "for utxo in utxos:\n",
    "    print(f\"Address: {utxo['address']}\")\n",
    "    print(f\"Transaction ID: {utxo['txid']}\")\n",
    "    print(f\"Output Index: {utxo['vout']}\")\n",
    "    print(f\"Script Public Key: {utxo['scriptPubKey']}\")\n",
    "    print(f\"Value: {utxo['amount']} BTC\")\n",
    "    print(\"-------------------------------\")"
   ]
  },
  {
   "cell_type": "markdown",
   "metadata": {},
   "source": [
    "Lets spend this 2 UTXOs. The total balance is 0.009 + 0.0059 = 0.0149 BTC.\n",
    "Lets divide it into 3 outputs evenly. So each output will be 0.0049 btc\n",
    "\n",
    "Address: mnPXsbCFtQbLrpAwQUDETcpUApDcjamSmB\n",
    "Transaction ID: ee3175c87c04a0ec16bf683d2f733289a60b9f8aabf932afd673b792c979b913\n",
    "Output Index: 2\n",
    "Script Public Key: 76a9144b61951cee51ecc3c23956b828ebe84068542f2f88ac\n",
    "Value: 0.00900000 BTC\n",
    "Pubkey: 02ba91253c14afa8cb4ce42ef90353aa60b7cff6497e7a3173198262e5423bbea4\n",
    "\n",
    "Address: mwQ2jDbA6Yzt35r4pcRuCViAwzyyySC4oK\n",
    "Transaction ID: bcffee2198135c5d6be186aab42d261977bbd2d3fe4d9f0cb933a35b762507a3\n",
    "Output Index: 0\n",
    "Script Public Key: 76a914ae32cd505abe9338e792df038d288485c0b601d788ac\n",
    "Pubkey: 026b86df5a6e11da7500b0da4749deb77248a69b6f728be5ff2fb2d740fb418282\n",
    "\n"
   ]
  },
  {
   "cell_type": "markdown",
   "metadata": {},
   "source": [
    "Now we just have to construct the unlocking conditions (scriptPubkey) for our 3 addresses.\n",
    "As already explained in the part2 the scriptPubKey for P2PKH is:\n",
    "OP_DUP OP_HASH160 <PubKeyHash> OP_EQUALVERIFY OP_CHECKSIG\n",
    "\n",
    "where PubKeyHash is the hash of the public key of the recipient address as hex string. So we have to convert back the recipipient address from base58 back to hex and remove version byte and the checksum. Then we add the OP codes as shown above.\n",
    "\n",
    "mnNSXkYQiFz73Hi7KnDYgNCzqvpKdVa355\n",
    "mqoZ1kdfmomVKMgFvZmBTQ3e2dRcho4N2Z\n",
    "mhSMUAMQGGS9WRWx3XcKhFphhLmvuipqqo"
   ]
  },
  {
   "cell_type": "code",
   "execution_count": 30,
   "metadata": {},
   "outputs": [
    {
     "name": "stdout",
     "output_type": "stream",
     "text": [
      "76a9144b2cb50a9a82eb15710b9b048c9334dadf9ecd8788ac\n",
      "76a91470d4e52849996467ee3e58dace3e90d5ce569e5988ac\n",
      "76a91415118444824e77374c3245f08686aa9b91f97bbd88ac\n"
     ]
    }
   ],
   "source": [
    "import base58\n",
    "\n",
    "def address_to_scriptpubkey(address: str) -> str:\n",
    "    \"\"\"Convert a P2PKH address to its corresponding scriptPubKey.\"\"\"\n",
    "    # Decode the address from Base58\n",
    "    decoded = base58.b58decode(address)\n",
    "    \n",
    "    # Extract the 20-byte PKH (drop the first byte and last 4 bytes)\n",
    "    pkh = decoded[1:-4]\n",
    "    \n",
    "    # Construct the scriptPubKey: OP_DUP OP_HASH160 <pkh> OP_EQUALVERIFY OP_CHECKSIG\n",
    "    scriptpubkey = '76a914' + pkh.hex() + '88ac'\n",
    "    \n",
    "    return scriptpubkey\n",
    "\n",
    "scriptPubkey1 = address_to_scriptpubkey(addr1)\n",
    "scriptPubkey2 = address_to_scriptpubkey(addr2)\n",
    "scriptPubkey3 = address_to_scriptpubkey(addr3)\n",
    "\n",
    "scriptPubkey1_len = bytes.fromhex(hex(len(scriptPubkey1)//2)[2:]).hex()\n",
    "scriptPubkey2_len = bytes.fromhex(hex(len(scriptPubkey2)//2)[2:]).hex()\n",
    "scriptPubkey3_len = bytes.fromhex(hex(len(scriptPubkey3)//2)[2:]).hex()\n",
    "\n",
    "pubkey1 = '02ba91253c14afa8cb4ce42ef90353aa60b7cff6497e7a3173198262e5423bbea4'\n",
    "pubkey2 = '026b86df5a6e11da7500b0da4749deb77248a69b6f728be5ff2fb2d740fb418282'\n",
    "\n",
    "\n",
    "print(scriptPubkey1)\n",
    "print(scriptPubkey2)\n",
    "print(scriptPubkey3)"
   ]
  },
  {
   "cell_type": "markdown",
   "metadata": {},
   "source": [
    "Now we have all the iinformation and can start to construct the raw transaction for signing"
   ]
  },
  {
   "cell_type": "markdown",
   "metadata": {},
   "source": [
    "- Copy here all the infos from RPC call"
   ]
  },
  {
   "cell_type": "code",
   "execution_count": 18,
   "metadata": {},
   "outputs": [],
   "source": [
    "# lets define all other variables\n",
    "tx_hash_1 = 'ee3175c87c04a0ec16bf683d2f733289a60b9f8aabf932afd673b792c979b913'\n",
    "TX_ID_1 = txid = bytes.fromhex(tx_hash_1)[::-1].hex()\n",
    "\n",
    "tx_hash_2 = 'bcffee2198135c5d6be186aab42d261977bbd2d3fe4d9f0cb933a35b762507a3'\n",
    "TX_ID_2 = txid = bytes.fromhex(tx_hash_2)[::-1].hex()\n",
    "\n",
    "v_out_1 = '02000000'\n",
    "v_out_2 = '00000000'\n",
    "\n",
    "\n",
    "# at the moment we have 0.0149 and 0.0122 BTC on the TX_ID_1 and TX_ID_2 respectively\n",
    "# our ouputsum has to be lower than the inputsum (we also have to pay the fee)\n",
    "# lets send 0.009 BTC to addr1, 0.009 BTC to addr2 and 0.009 BTC to addr3 and 0.001 BTC to the miner\n",
    "\n",
    "\n",
    "\n",
    "# the temp ScriptSig is the scriptpubkey of the previous transaction. which we got from the RPC\n",
    "scriptSig1_t = '76a9144b61951cee51ecc3c23956b828ebe84068542f2f88ac'\n",
    "scriptSig2_t = '76a914ae32cd505abe9338e792df038d288485c0b601d788ac'\n",
    "\n",
    "scriptSig1_len_t = bytes.fromhex(hex(len(scriptSig1_t)//2)[2:]).hex()\n",
    "scriptSig2_len_t = bytes.fromhex(hex(len(scriptSig2_t)//2)[2:]).hex()"
   ]
  },
  {
   "cell_type": "code",
   "execution_count": 19,
   "metadata": {},
   "outputs": [
    {
     "name": "stdout",
     "output_type": "stream",
     "text": [
      "107a070000000000\n"
     ]
    }
   ],
   "source": [
    "def btc_to_satoshis_hex(btc_value: float) -> str:\n",
    "    \"\"\"Convert BTC to its 8-byte little-endian hex representation.\"\"\"\n",
    "    # Convert BTC to satoshi (1 BTC = 100,000,000 satoshis)\n",
    "    satoshis = round(btc_value * 100_000_000)\n",
    "\n",
    "    # Convert to 8-byte little endian format and return its hexadecimal representation, \n",
    "    # ensuring it's always padded to 16 characters\n",
    "    return satoshis.to_bytes(8, 'little').hex().rjust(16, '0')\n",
    "\n",
    "# Example:\n",
    "btc_value1 = 0.0049\n",
    "btc_value2 = 0.0049\n",
    "btc_value3 = 0.0049\n",
    "\n",
    "value1 = btc_to_satoshis_hex(btc_value1)\n",
    "value2 = btc_to_satoshis_hex(btc_value2)\n",
    "value3 = btc_to_satoshis_hex(btc_value3)\n",
    "\n",
    "print(value1)\n"
   ]
  },
  {
   "cell_type": "markdown",
   "metadata": {},
   "source": [
    "lets agian see the structure of the bitcoin transaction with several inputs and outputs\n",
    "\n",
    "Version (4 bytes)\n",
    "Input Count (varint)\n",
    "    Input 1:\n",
    "    txid (32 bytes)\n",
    "    vout (4 bytes)\n",
    "    scriptSig length (varint)\n",
    "    scriptSig (variable length, typically empty if unsigned)\n",
    "    sequence (4 bytes)\n",
    "Input 2 (repeat structure of Input 1)\n",
    "Output Count (varint)\n",
    "Output 1:\n",
    "    value (8 bytes)\n",
    "    scriptPubKey length (varint)\n",
    "    scriptPubKey (variable length)\n",
    "Output 2 (repeat structure of Output 1)\n",
    "Output 3 (repeat structure of Output 1)\n",
    "Locktime (4 bytes)\n",
    "Sighash type (4 bytes: only if signing)\n"
   ]
  },
  {
   "cell_type": "markdown",
   "metadata": {},
   "source": [
    "- During signing ofinputs we have to set temprorary Scriptsig to the Scriptpubke of the previous tx for the TX_ID we are signing AND ALL OTHER TEMP. SCRIPTSIG TO '00'\n",
    "\n",
    "- Another point is that we got public key from bitcoin wallet, but it is just derivable from the private key as demontsrated in the part2 (it is just corresponding point on the elliptic curve)"
   ]
  },
  {
   "cell_type": "code",
   "execution_count": 22,
   "metadata": {},
   "outputs": [
    {
     "name": "stdout",
     "output_type": "stream",
     "text": [
      "020000000213b979c992b773d6af32f9ab8a9f0ba68932732f3d68bf16eca0047cc87531ee020000001976a9144b61951cee51ecc3c23956b828ebe84068542f2f88acfdffffffa30725765ba333b90c9f4dfed3d2bb7719262db4aa86e16b5d5c139821eeffbc0000000000fdffffff03107a0700000000001976a9144b2cb50a9a82eb15710b9b048c9334dadf9ecd8788ac107a0700000000001976a91470d4e52849996467ee3e58dace3e90d5ce569e5988ac107a0700000000001976a91415118444824e77374c3245f08686aa9b91f97bbd88ac0000000001000000\n"
     ]
    }
   ],
   "source": [
    "# now we can create the raw trasnaction for signing with the first key\n",
    "rawTx_toSign1 = (\n",
    "    version\n",
    "    + tx_in_count  # Now should represent 2 inputs\n",
    "    + TX_ID_1\n",
    "    + v_out_1\n",
    "    + scriptSig1_len_t\n",
    "    + scriptSig1_t\n",
    "    + sequence\n",
    "    + TX_ID_2\n",
    "    + v_out_2\n",
    "    + '00'\n",
    "    #+ scriptSig2_len_t\n",
    "    #+ scriptSig2_t\n",
    "    + sequence\n",
    "    + tx_out_count  # Now should represent 3 outputs\n",
    "    + value1\n",
    "    + scriptPubkey1_len\n",
    "    + scriptPubkey1\n",
    "    + value2\n",
    "    + scriptPubkey2_len\n",
    "    + scriptPubkey2\n",
    "    + value3\n",
    "    + scriptPubkey3_len\n",
    "    + scriptPubkey3\n",
    "    + locktime\n",
    "    + sig_hash_type  # Only if signing\n",
    ")\n",
    "\n",
    "print(rawTx_toSign1)"
   ]
  },
  {
   "cell_type": "code",
   "execution_count": 24,
   "metadata": {},
   "outputs": [
    {
     "name": "stdout",
     "output_type": "stream",
     "text": [
      "020000000213b979c992b773d6af32f9ab8a9f0ba68932732f3d68bf16eca0047cc87531ee0200000000fdffffffa30725765ba333b90c9f4dfed3d2bb7719262db4aa86e16b5d5c139821eeffbc000000001976a914ae32cd505abe9338e792df038d288485c0b601d788acfdffffff03107a0700000000001976a9144b2cb50a9a82eb15710b9b048c9334dadf9ecd8788ac107a0700000000001976a91470d4e52849996467ee3e58dace3e90d5ce569e5988ac107a0700000000001976a91415118444824e77374c3245f08686aa9b91f97bbd88ac0000000001000000\n"
     ]
    }
   ],
   "source": [
    "# now we can create the raw trasnaction for signing with the second key\n",
    "rawTx_toSign2 = (\n",
    "    version\n",
    "    + tx_in_count  # Now should represent 2 inputs\n",
    "    + TX_ID_1\n",
    "    + v_out_1\n",
    "    + '00'\n",
    "   # + scriptSig1_len_t\n",
    "   # + scriptSig1_t\n",
    "    + sequence\n",
    "    + TX_ID_2\n",
    "    + v_out_2\n",
    "    + scriptSig2_len_t\n",
    "    + scriptSig2_t\n",
    "    + sequence\n",
    "    + tx_out_count  # Now should represent 3 outputs\n",
    "    + value1\n",
    "    + scriptPubkey1_len\n",
    "    + scriptPubkey1\n",
    "    + value2\n",
    "    + scriptPubkey2_len\n",
    "    + scriptPubkey2\n",
    "    + value3\n",
    "    + scriptPubkey3_len\n",
    "    + scriptPubkey3\n",
    "    + locktime\n",
    "    + sig_hash_type  # Only if signing\n",
    ")\n",
    "\n",
    "print(rawTx_toSign2)"
   ]
  },
  {
   "cell_type": "markdown",
   "metadata": {},
   "source": [
    "020000000213b979c992b773d6af32f9ab8a9f0ba68932732f3d68bf16eca0047cc87531ee020000001976a9144b61951cee51ecc3c23956b828ebe84068542f2f88acfdffffffa30725765ba333b90c9f4dfed3d2bb7719262db4aa86e16b5d5c139821eeffbc0000000000fdffffff03107a0700000000001976a9144b2cb50a9a82eb15710b9b048c9334dadf9ecd8788ac107a0700000000001976a91470d4e52849996467ee3e58dace3e90d5ce569e5988ac107a0700000000001976a91415118444824e77374c3245f08686aa9b91f97bbd88ac0000000001000000\n",
    "\n",
    "020000000213b979c992b773d6af32f9ab8a9f0ba68932732f3d68bf16eca0047cc87531ee0200000000fdffffffa30725765ba333b90c9f4dfed3d2bb7719262db4aa86e16b5d5c139821eeffbc000000001976a914ae32cd505abe9338e792df038d288485c0b601d788acfdffffff03107a0700000000001976a9144b2cb50a9a82eb15710b9b048c9334dadf9ecd8788ac107a0700000000001976a91470d4e52849996467ee3e58dace3e90d5ce569e5988ac107a0700000000001976a91415118444824e77374c3245f08686aa9b91f97bbd88ac0000000001000000"
   ]
  },
  {
   "cell_type": "code",
   "execution_count": 15,
   "metadata": {},
   "outputs": [
    {
     "name": "stdout",
     "output_type": "stream",
     "text": [
      "cUk2wUnGbnkV87Q24v3mRuhJMMdtN9caMHQdydQvmRM8BPrQxFEd\n",
      "cUp7j8Fa6rbn9xo1FYiu4qeyNW3Un6r9GKpKskd4iYtwSPXuHo67\n"
     ]
    }
   ],
   "source": [
    "# before signing the transaction we shall get private keys for the inputs \n",
    "# or we already have them if we created them manually as described in the part1\n",
    "\n",
    "# lets get the private keys for the inputs\n",
    "rpc_user = \"pawel\"\n",
    "rpc_password = \"qqqwwweee\"\n",
    "rpc_port = \"18332\"  # Default port for Bitcoin Core RPC is 8332. Use 18332 for testnet.\n",
    "rpc_connection = AuthServiceProxy(f\"http://{rpc_user}:{rpc_password}@localhost:{rpc_port}\")\n",
    "\n",
    "\n",
    "in_addr1 = 'mnPXsbCFtQbLrpAwQUDETcpUApDcjamSmB'\n",
    "privKey_WIF_1 = rpc_connection.dumpprivkey(in_addr1)\n",
    "\n",
    "in_addr2 = 'mwQ2jDbA6Yzt35r4pcRuCViAwzyyySC4oK'\n",
    "privKey_WIF_2 = rpc_connection.dumpprivkey(in_addr2)\n",
    "\n",
    "print(privKey_WIF_1)\n",
    "print(privKey_WIF_2)\n",
    "\n"
   ]
  },
  {
   "cell_type": "markdown",
   "metadata": {},
   "source": [
    "cUk2wUnGbnkV87Q24v3mRuhJMMdtN9caMHQdydQvmRM8BPrQxFEd\n",
    "cUp7j8Fa6rbn9xo1FYiu4qeyNW3Un6r9GKpKskd4iYtwSPXuHo67"
   ]
  },
  {
   "cell_type": "code",
   "execution_count": 16,
   "metadata": {},
   "outputs": [
    {
     "name": "stdout",
     "output_type": "stream",
     "text": [
      "d5a9aeecf7cd432b3fc968f9300da8a70efd464d6374aec3adab2a2fd4d25b82\n",
      "d7c3564fd38bcd83ca63cc95f844f856875305aea87f44c57439e008619591a5\n"
     ]
    }
   ],
   "source": [
    "# now we have to decode the private keys from WIF format to hex format\n",
    "import base58\n",
    "import hashlib\n",
    "\n",
    "def wif_to_private_key_hex(privKeyWIF: str) -> str:\n",
    "    \"\"\"\n",
    "    Convert a WIF (Wallet Import Format) private key to its hexadecimal representation.\n",
    "    \n",
    "    Args:\n",
    "    - privKeyWIF (str): WIF encoded private key string.\n",
    "    \n",
    "    Returns:\n",
    "    - str: Hexadecimal representation of the private key.\n",
    "    \"\"\"\n",
    "    # 1. Decode the WIF format using Base58\n",
    "    decoded = base58.b58decode(privKeyWIF)\n",
    "\n",
    "    # 2. Strip and validate the checksum\n",
    "    extended_key = decoded[:-4]  # Strip the checksum\n",
    "    checksum = decoded[-4:]\n",
    "\n",
    "    # Verify the checksum\n",
    "    if checksum != hashlib.sha256(hashlib.sha256(extended_key).digest()).digest()[:4]:\n",
    "        raise ValueError(\"Invalid WIF checksum!\")\n",
    "\n",
    "    # 3. Remove the version byte\n",
    "    extended_key = extended_key[1:]\n",
    "\n",
    "    # 4. Check and remove the 01 byte for compressed pubKey (if present)\n",
    "    if extended_key[-1] == 1:  # Checking if the last byte is 0x01\n",
    "        privKey_hex = extended_key[:-1].hex()  # Removing the 01 byte\n",
    "    else:\n",
    "        privKey_hex = extended_key.hex()\n",
    "    \n",
    "    return privKey_hex\n",
    "\n",
    "# Usage\n",
    "priv_key_hex_1 = wif_to_private_key_hex(privKey_WIF_1)\n",
    "priv_key_hex_2 = wif_to_private_key_hex(privKey_WIF_2)\n",
    "\n",
    "print(priv_key_hex_1)\n",
    "print(priv_key_hex_2)\n",
    "\n"
   ]
  },
  {
   "cell_type": "markdown",
   "metadata": {},
   "source": [
    "d5a9aeecf7cd432b3fc968f9300da8a70efd464d6374aec3adab2a2fd4d25b82\n",
    "d7c3564fd38bcd83ca63cc95f844f856875305aea87f44c57439e008619591a5"
   ]
  },
  {
   "cell_type": "code",
   "execution_count": 25,
   "metadata": {},
   "outputs": [
    {
     "name": "stdout",
     "output_type": "stream",
     "text": [
      "3044022049032bfb2871d52d9cf0e3527fc70cf6b581125c04bacf92b667066554db789102207cf1780102e78665682231b083f0ca1b4428ea19b70e3e182fb0661266e8bcc001\n",
      "3045022100bbdc9ad6a867ff53a366cab7f92c5b7daa849e0b443300492b54eb5206f031b802204eee44e88dd6ef37ba5d6089ce5546dbc96eee1a4fc722b85cd40bceade3f98301\n"
     ]
    }
   ],
   "source": [
    "# lets sign the transaction\n",
    "# at first we have to hash the transaction twice (double sha256)\n",
    "# dont forget that for P2PKH we have to add the public key to the signature\n",
    "# also remember that we have to sign the transaction twice (once for each input)\n",
    "# dont forget to add the sighash type at the end of the signature (01)\n",
    "\n",
    "from coincurve import PrivateKey\n",
    "\n",
    "def sign_transaction(privKey_hex, rawTx_toSign):\n",
    "    \"\"\"\n",
    "    Sign a raw transaction using the provided private key.\n",
    "    \n",
    "    Args:\n",
    "    - privKey_hex (str): The private key in hexadecimal format.\n",
    "    - rawTx_toSign_hash (bytes): The hash of the raw transaction to be signed.\n",
    "    \n",
    "    Returns:\n",
    "    - str: The signed transaction (scriptSig) in hexadecimal format.\n",
    "    \"\"\"\n",
    "    # Hash the raw transaction twice\n",
    "    rawTx_toSign_hash = hashlib.sha256(hashlib.sha256(bytes.fromhex(rawTx_toSign)).digest()).digest()\n",
    "\n",
    "    # Convert the hex private key to a coincurve PrivateKey object\n",
    "    privkey = PrivateKey(bytes.fromhex(privKey_hex))\n",
    "    \n",
    "    # Sign the transaction hash deterministically\n",
    "    signature = privkey.sign(rawTx_toSign_hash, hasher=None)\n",
    "    \n",
    "    # To signal that we used SigHash all, add '01' at the end\n",
    "    signature += bytes.fromhex('01')\n",
    "    \n",
    "    # Convert the signature to its hex representation\n",
    "    sig = signature.hex()\n",
    "    \n",
    "    return sig\n",
    "\n",
    "# Usage example:\n",
    "\n",
    "Sig1 = sign_transaction(priv_key_hex_1, rawTx_toSign1)\n",
    "Sig2 = sign_transaction(priv_key_hex_2, rawTx_toSign2)\n",
    "\n",
    "\n",
    "print(Sig1)\n",
    "print(Sig2)\n",
    "\n",
    "\n",
    "\n"
   ]
  },
  {
   "cell_type": "markdown",
   "metadata": {},
   "source": [
    "3044022049032bfb2871d52d9cf0e3527fc70cf6b581125c04bacf92b667066554db789102207cf1780102e78665682231b083f0ca1b4428ea19b70e3e182fb0661266e8bcc001\n",
    "\n",
    "3045022100bbdc9ad6a867ff53a366cab7f92c5b7daa849e0b443300492b54eb5206f031b802204eee44e88dd6ef37ba5d6089ce5546dbc96eee1a4fc722b85cd40bceade3f98301"
   ]
  },
  {
   "cell_type": "markdown",
   "metadata": {},
   "source": [
    "Now lets build the whole transaction. Lets not forget to append the public key to the signatures as required by P2PKH transaction"
   ]
  },
  {
   "cell_type": "code",
   "execution_count": 49,
   "metadata": {},
   "outputs": [],
   "source": [
    "# so complete scriptSig for the first input is:\n",
    "# the number 2 assumes here that sig and pubkey are each 1 bytes long (which is not always the case)\n",
    "\n",
    "len_Sig1 = bytes.fromhex(hex(len(Sig1)//2)[2:]).hex()\n",
    "len_pubkey1 = bytes.fromhex(hex(len(pubkey1)//2)[2:]).hex()\n",
    "total_len2 = hex((int(len_Sig1, 16) + int(len_pubkey1, 16) + 2))\n",
    "\n",
    "scriptSig1 = (total_len2[2:] +len_Sig1 + Sig1 +  len_pubkey1 + pubkey1)\n",
    "\n",
    "len_Sig2 = bytes.fromhex(hex(len(Sig2)//2)[2:]).hex()\n",
    "len_pubkey2 = bytes.fromhex(hex(len(pubkey2)//2)[2:]).hex()\n",
    "total_len2 = hex((int(len_Sig2, 16) + int(len_pubkey2, 16) + 2))\n",
    "\n",
    "scriptSig2 = (total_len2[2:] +len_Sig2 + Sig2 +  len_pubkey2 + pubkey2)\n"
   ]
  },
  {
   "cell_type": "code",
   "execution_count": 53,
   "metadata": {},
   "outputs": [
    {
     "name": "stdout",
     "output_type": "stream",
     "text": [
      "020000000213b979c992b773d6af32f9ab8a9f0ba68932732f3d68bf16eca0047cc87531ee020000006a473044022049032bfb2871d52d9cf0e3527fc70cf6b581125c04bacf92b667066554db789102207cf1780102e78665682231b083f0ca1b4428ea19b70e3e182fb0661266e8bcc0012102ba91253c14afa8cb4ce42ef90353aa60b7cff6497e7a3173198262e5423bbea4fdffffffa30725765ba333b90c9f4dfed3d2bb7719262db4aa86e16b5d5c139821eeffbc000000006b483045022100bbdc9ad6a867ff53a366cab7f92c5b7daa849e0b443300492b54eb5206f031b802204eee44e88dd6ef37ba5d6089ce5546dbc96eee1a4fc722b85cd40bceade3f9830121026b86df5a6e11da7500b0da4749deb77248a69b6f728be5ff2fb2d740fb418282fdffffff03107a0700000000001976a9144b2cb50a9a82eb15710b9b048c9334dadf9ecd8788ac107a0700000000001976a91470d4e52849996467ee3e58dace3e90d5ce569e5988ac107a0700000000001976a91415118444824e77374c3245f08686aa9b91f97bbd88ac00000000\n"
     ]
    }
   ],
   "source": [
    "# now we can build the complete raw transaction\n",
    "# now we can create the raw trasnaction for signing with the second key\n",
    "rawTx = (\n",
    "    version\n",
    "    + tx_in_count  # Now should represent 2 inputs\n",
    "    + TX_ID_1\n",
    "    + v_out_1\n",
    "    + scriptSig1\n",
    "    + sequence\n",
    "    + TX_ID_2\n",
    "    + v_out_2\n",
    "    + scriptSig2\n",
    "    + sequence\n",
    "    + tx_out_count  # Now should represent 3 outputs\n",
    "    + value1\n",
    "    + scriptPubkey1_len\n",
    "    + scriptPubkey1\n",
    "    + value2\n",
    "    + scriptPubkey2_len\n",
    "    + scriptPubkey2\n",
    "    + value3\n",
    "    + scriptPubkey3_len\n",
    "    + scriptPubkey3\n",
    "    + locktime\n",
    ")\n",
    "\n",
    "print(rawTx)"
   ]
  },
  {
   "cell_type": "markdown",
   "metadata": {},
   "source": [
    "020000000213b979c992b773d6af32f9ab8a9f0ba68932732f3d68bf16eca0047cc87531ee020000006a473044022049032bfb2871d52d9cf0e3527fc70cf6b581125c04bacf92b667066554db789102207cf1780102e78665682231b083f0ca1b4428ea19b70e3e182fb0661266e8bcc0012102ba91253c14afa8cb4ce42ef90353aa60b7cff6497e7a3173198262e5423bbea4fdffffffa30725765ba333b90c9f4dfed3d2bb7719262db4aa86e16b5d5c139821eeffbc000000006b483045022100bbdc9ad6a867ff53a366cab7f92c5b7daa849e0b443300492b54eb5206f031b802204eee44e88dd6ef37ba5d6089ce5546dbc96eee1a4fc722b85cd40bceade3f9830121026b86df5a6e11da7500b0da4749deb77248a69b6f728be5ff2fb2d740fb418282fdffffff03107a0700000000001976a9144b2cb50a9a82eb15710b9b048c9334dadf9ecd8788ac107a0700000000001976a91470d4e52849996467ee3e58dace3e90d5ce569e5988ac107a0700000000001976a91415118444824e77374c3245f08686aa9b91f97bbd88ac00000000"
   ]
  },
  {
   "cell_type": "code",
   "execution_count": null,
   "metadata": {},
   "outputs": [],
   "source": [
    "# Now we can send the transaction to the network\n",
    "from bitcoinrpc.authproxy import AuthServiceProxy\n",
    "rpc_user = \"pawel\"\n",
    "rpc_password = \"qqqwwweee\"\n",
    "rpc_port = \"18332\"  # Default port for Bitcoin Core RPC is 8332. Use 18332 for testnet.\n",
    "rpc_connection = AuthServiceProxy(f\"http://{rpc_user}:{rpc_password}@localhost:{rpc_port}\")\n",
    "\n",
    "\n",
    "sent = rpc_connection.sendrawtransaction(rawTx)\n",
    "#print('TX_ID: ', sent)"
   ]
  },
  {
   "cell_type": "markdown",
   "metadata": {},
   "source": [
    "- WELL DONE"
   ]
  }
 ],
 "metadata": {
  "kernelspec": {
   "display_name": "bit345",
   "language": "python",
   "name": "python3"
  },
  "language_info": {
   "codemirror_mode": {
    "name": "ipython",
    "version": 3
   },
   "file_extension": ".py",
   "mimetype": "text/x-python",
   "name": "python",
   "nbconvert_exporter": "python",
   "pygments_lexer": "ipython3",
   "version": "3.9.6"
  },
  "orig_nbformat": 4
 },
 "nbformat": 4,
 "nbformat_minor": 2
}
