{
 "cells": [
  {
   "cell_type": "markdown",
   "metadata": {},
   "source": [
    "In the second part we will get some testnet coins and send them to our address. After that we will create from scratch a transaction which spends this coins.\n",
    "We will use the testnet faucet to get some coins. The testnet faucet is a website that gives you free testnet coins. You can find the testnet faucet here: https://coinfaucet.eu/en/btc-testnet/\n"
   ]
  },
  {
   "cell_type": "markdown",
   "metadata": {},
   "source": [
    "Our last generated address is: mm5xUEZUd1i9nti6kgFmUxnGMgEt47qArs\n",
    "\n",
    "From the faucet we got 0.015 BTC \n",
    "TxID 34e357ae97fc83aa8303f132c120b004b130009a38a98cf10668d68b7a9fe7b9"
   ]
  },
  {
   "cell_type": "markdown",
   "metadata": {},
   "source": [
    "At first we will use Bitcoin Core RPC command \"createrawtransaction\" to send coins to a new P2PKH address. We will spend the coins that we got from the faucet.\n",
    "Our destination address is: mhdkiGJ7wdggCYZKTv5E9NvFotmm9LTaCX\n",
    "We also need to specify txID that we want spend, the index of the ouput (0 based) that we want to spend, and the amount that we want to spend. We will spend the whole amount. The fee that will be paid to the miner is calculated is difference from what we had in that input to the sum of all outputs."
   ]
  },
  {
   "cell_type": "code",
   "execution_count": 19,
   "metadata": {},
   "outputs": [
    {
     "name": "stdout",
     "output_type": "stream",
     "text": [
      "Signed tx: 0200000001b9e79f7a8bd66806f18ca9389a0030b104b020c132f10383aa83fc97ae57e334000000006a47304402201a8e2552b82db082e41b3995c5c00b8c982c3406c3cd95ab75931cb77b29a6da022078443d91a5f76ef3acbcdce22be842c38db7a9168c73c6bc7bfbd9eb8465270c012102831b722bb13bf11e88df53986a9bf56d92bf35a4490a7731a6c866d173a098d4fdffffff0160e31600000000001976a91417397ea177aefa977a186ee6c27be7ba0631a10988ac00000000\n",
      "TX_sent:  3759081cc2041c3ba6c945a01d02fe1ee48422fdde38d5f1e60834d720ee0752\n"
     ]
    }
   ],
   "source": [
    "\n",
    "from bitcoinrpc.authproxy import AuthServiceProxy\n",
    "rpc_user = \"pawel\"\n",
    "rpc_password = \"qqqwwweee\"\n",
    "rpc_port = \"18332\"  # Default port for Bitcoin Core RPC is 8332. Use 18332 for testnet.\n",
    "rpc_connection = AuthServiceProxy(f\"http://{rpc_user}:{rpc_password}@localhost:{rpc_port}\")\n",
    "\n",
    "\n",
    "inputs = [\n",
    "    {\"txid\": \"34e357ae97fc83aa8303f132c120b004b130009a38a98cf10668d68b7a9fe7b9\", \"vout\": 0}\n",
    "]\n",
    "outputs = {\n",
    "    \"mhdkiGJ7wdggCYZKTv5E9NvFotmm9LTaCX\": 0.015,\n",
    "}\n",
    "# create raw tx for bitcoin core (is different for manual signing)\n",
    "raw_transaction_hex = rpc_connection.createrawtransaction(inputs, outputs)\n",
    "\n",
    "# sign raw tx\n",
    "signed_transaction = rpc_connection.signrawtransactionwithwallet(raw_transaction_hex)\n",
    "print('Signed tx:', signed_transaction['hex'])\n",
    "\n",
    "# send tx\n",
    "TX_sent = rpc_connection.sendrawtransaction(signed_transaction['hex'])\n",
    "print('TX_sent: ', TX_sent)\n"
   ]
  },
  {
   "cell_type": "markdown",
   "metadata": {},
   "source": [
    "Now we have successfully created transaction and spend it. Lets look at the raw transaction to understand all fileds that needs to be filled in order to create a transaction from scratch by ourself.\n",
    "Lets pull the raw transaction for our tx id from Bitcoin  Core:\n",
    "Tx ID: 3759081cc2041c3ba6c945a01d02fe1ee48422fdde38d5f1e60834d720ee0752\n"
   ]
  },
  {
   "cell_type": "code",
   "execution_count": 21,
   "metadata": {},
   "outputs": [
    {
     "name": "stdout",
     "output_type": "stream",
     "text": [
      "0200000001b9e79f7a8bd66806f18ca9389a0030b104b020c132f10383aa83fc97ae57e334000000006a47304402201a8e2552b82db082e41b3995c5c00b8c982c3406c3cd95ab75931cb77b29a6da022078443d91a5f76ef3acbcdce22be842c38db7a9168c73c6bc7bfbd9eb8465270c012102831b722bb13bf11e88df53986a9bf56d92bf35a4490a7731a6c866d173a098d4fdffffff0160e31600000000001976a91417397ea177aefa977a186ee6c27be7ba0631a10988ac00000000\n"
     ]
    }
   ],
   "source": [
    "from bitcoinrpc.authproxy import AuthServiceProxy\n",
    "rpc_user = \"pawel\"\n",
    "rpc_password = \"qqqwwweee\"\n",
    "rpc_port = \"18332\"  # Default port for Bitcoin Core RPC is 8332. Use 18332 for testnet.\n",
    "rpc_connection = AuthServiceProxy(f\"http://{rpc_user}:{rpc_password}@localhost:{rpc_port}\")\n",
    "\n",
    "TX_id = '3759081cc2041c3ba6c945a01d02fe1ee48422fdde38d5f1e60834d720ee0752'\n",
    "\n",
    "transaction_info = rpc_connection.gettransaction(TX_id)\n",
    "transaction_hex = transaction_info['hex']\n",
    "print(transaction_hex)"
   ]
  },
  {
   "cell_type": "markdown",
   "metadata": {},
   "source": [
    "Our raw transaction looks like this:\n",
    "0200000001b9e79f7a8bd66806f18ca9389a0030b104b020c132f10383aa83fc97ae57e334000000006a47304402201a8e2552b82db082e41b3995c5c00b8c982c3406c3cd95ab75931cb77b29a6da022078443d91a5f76ef3acbcdce22be842c38db7a9168c73c6bc7bfbd9eb8465270c012102831b722bb13bf11e88df53986a9bf56d92bf35a4490a7731a6c866d173a098d4fdffffff0160e31600000000001976a91417397ea177aefa977a186ee6c27be7ba0631a10988ac00000000"
   ]
  },
  {
   "cell_type": "markdown",
   "metadata": {},
   "source": [
    "- 02000000 \n",
    "the first for 4 bytes is the version number in little endian. The original transaction version was 1, and the second version allow SegWit transactions, whiich are not in scope of this article. For our purpose of sending P2PKH we could also use version 1, but we will use version 2, which is the current version of Bitcoin transactions\n",
    "\n",
    "- 01 \n",
    "the next byte is the number of inputs. In our case we have only one input, so it is 01 in little endian. This field is var size; if we have less as 252 inputs we can use one byte. If we have more than 252 but less than 2^16 (65,536) inputs, you'd use 3 bytes: the first byte would be 0xfd followed by a 2-byte representation of the number of inputs. There are to more extensions to represent more than 2^16 inputs, but we will not discuss them here\n",
    "\n",
    "- b9e79f7a8bd66806f18ca9389a0030b104b020c132f10383aa83fc97ae57e334\n",
    "The next 32 bytes is the hash of the transaction id from which we want to spend an output. The transaction id is just o double sha256 of the whole raw transaction and is used to identify transactions. It is represented in little endian format, which means it is bytes reversed of the hash of the transaction which we see in Bitcoin Core or some blockchain explorer\n",
    "\n",
    "- 00000000\n",
    "The next 4 bytes is the index of the output in the transaction from which we want to spend an output. It is represented in little endian format\n",
    "\n",
    "- 6a47304402201a8e2552b82db082e41b3995c5c00b8c982c3406c3cd95ab75931cb77b29a6da022078443d91a5f76ef3acbcdce22be842c38db7a9168c73c6bc7bfbd9eb8465270c012102831b722bb13bf11e88df53986a9bf56d92bf35a4490a7731a6c866d173a098d4\n",
    "The next field is called ScriptSig and is variable length. This field is needs to fullfill the defined spending condition of the output we want to spend. It depends on the transaction type that we are spending; in P2PKH it is signature of the transaction and the public key of the sender. We will discuss this field in more detail later\n",
    "\n",
    "- fdffffff\n",
    "The nSequence field is used for various purposes, including relative locktimes, thanks to the upgrades introduced in BIP 68. This 4-byte field determines how long (in terms of blocks or time) the input must wait before it can be included in a valid block.\n",
    "In our case fdffffff means that the input can be included in a block immediately but also could be replacaed by a higher nSequence value, which is used for RBF (Replace By Fee) transactions\n",
    "\n",
    "- 01\n",
    "next byte is the number of outputs. It is also var legth with the logic similiar to the number of inputs\n",
    "\n",
    "- 60e3160000000000 \n",
    "The next 8 bytes is the amount of the output in satoshis. It is represented in little endian format. In our case it is 0.015 BTC\n",
    "\n",
    "- 1976a91417397ea177aefa977a186ee6c27be7ba0631a10988ac\n",
    "The next part is the ScriptPubKey, which defines the spedning condtion of the output. It also var size. We will discuss this field in more detail later as we build oor own raw transaction\n",
    "\n",
    "- 00000000\n",
    "The last 4 bytes is the locktime. It is used to indicate the earliest time a transaction can be added to the block chain. In our case it is 0, which means that the transaction can be included in the next block\n"
   ]
  },
  {
   "cell_type": "markdown",
   "metadata": {},
   "source": [
    "Now that we know all fields in the bitcoin transaction lets build out own raw transaction:\n",
    "\n",
    "- 02000000\n",
    "Version filed stays the same\n",
    "\n",
    "- 01\n",
    "We will also spend only 1 input (we will spend the output from the previous transaction)\n",
    "\n",
    "- Tx_ID\n",
    "Orig TX_ID that we got after sending is:\n",
    "3759081cc2041c3ba6c945a01d02fe1ee48422fdde38d5f1e60834d720ee0752\n",
    "The TX_id in raw transaction just the TX that we want to spend in little endian format (bytes are reversed)\n",
    "\n",
    "- 00000000\n",
    "This is the index of the output we are spending. Since we are spending the first output we will use 00000000\n",
    "\n",
    "- SigScript \n",
    "At the moment we don't have signature, because we have at first build the raw trnasaction and sign it. In P2PKH transaction the ScriptSig field is at first replaced with ...\n",
    "\n",
    "- fdffffff\n",
    "We will use the same sequence number as in the previous transaction\n",
    "\n",
    "- 01\n",
    "We will send bitcoins only to one address\n",
    "\n",
    "- Vakue of the output\n",
    "This 8 byte field is in little endian format. We will spend 0.0149 btc\n",
    "\n",
    "- Unlocking Script (ScriptPubKey)\n",
    "This is the script that will unlock the bitcoins from the previous transaction. We will build the unlocking script for P2PKH transaction using the address of our recipient\n",
    "\n",
    "- 00000000\n",
    "Locktime field stays the same, the transaction is not time locked\n"
   ]
  },
  {
   "cell_type": "code",
   "execution_count": 37,
   "metadata": {},
   "outputs": [],
   "source": [
    "version = \"02000000\"\n",
    "tx_in_count = \"01\"\n",
    "vout = \"00000000\"\n",
    "sequence = \"fdffffff\"\n",
    "tx_out_count = \"01\"\n",
    "locktime = \"00000000\""
   ]
  },
  {
   "cell_type": "markdown",
   "metadata": {},
   "source": [
    "In the next block we will derthe missing part of the P2PKH transaction. We will create the unlocking script and the locking script. We will also create the transaction and broadcast it to the network.\n",
    "- TX_ID\n",
    "- SigScript (temprorary, before the real one is created)\n",
    "- Value of the output\n",
    "- Unlocking Script (ScriptPubKey)"
   ]
  },
  {
   "cell_type": "code",
   "execution_count": 36,
   "metadata": {},
   "outputs": [
    {
     "name": "stdout",
     "output_type": "stream",
     "text": [
      "5207ee20d73408e6f1d538defd2284e41efe021da045c9a63b1c04c21c085937\n"
     ]
    }
   ],
   "source": [
    "# tx id reversion\n",
    "tx_hash = '3759081cc2041c3ba6c945a01d02fe1ee48422fdde38d5f1e60834d720ee0752'\n",
    "txid = bytes.fromhex(tx_hash)[::-1].hex()\n",
    "\n",
    "print(txid)"
   ]
  },
  {
   "cell_type": "markdown",
   "metadata": {},
   "source": [
    "We can say the scriptSig is a proof that the sender can fullfil the spending conditions of the input transaction. In the case of P2PKH it is the digital signature over the whole transaction with the private key which corresponds to the bitcoin address in the spending conditions of the input transaction and the public key which corresponds to the same address. \n",
    "But before we sign the transaction we put is this field the scriptPubkey (spending condition) of the input transaction. As I understand it is done from historical reasons, but also could be done differently (for example, put '00' in the scriptSig field, because all important input and output data is already included in the raw tx).\n",
    "For now we will just copy the scriptPubkey from the input transaction to the scriptSig field of the raw transaction. Later when we construct the spending condition (scriptPubkey) for the new transaction it will be clear how  ScriptPubkey is constructed for P2PKH transaction (which we divide in 2 parts length and data; it is var length, if the data length is lower as 253 bytes, we just define the length of the data in 1 byte, otherwise read docu for var length)\n",
    "_t indicates that this is temprorary signature, which will be replaced by the real signature later."
   ]
  },
  {
   "cell_type": "code",
   "execution_count": 46,
   "metadata": {},
   "outputs": [],
   "source": [
    "scriptSig_len_t = '19'\n",
    "scriptSig_t = '76a91417397ea177aefa977a186ee6c27be7ba0631a10988ac'"
   ]
  },
  {
   "cell_type": "markdown",
   "metadata": {},
   "source": [
    "The next one is the Output value. It is 8 byte little endian format of the satoshis we want to send (1 BTC - 100 000 000 satoshis).\n",
    "Lets write some small script to transform our 0.0149 BTC that we want to spend"
   ]
  },
  {
   "cell_type": "code",
   "execution_count": 45,
   "metadata": {},
   "outputs": [
    {
     "name": "stdout",
     "output_type": "stream",
     "text": [
      "50bc160000000000\n"
     ]
    }
   ],
   "source": [
    "# Given BTC value\n",
    "btc_value = 0.0149\n",
    "\n",
    "# Convert BTC to satoshi (1 BTC = 100,000,000 satoshis)\n",
    "satoshis = int(btc_value * 100_000_000)\n",
    "\n",
    "# Convert to 8-byte little endian format\n",
    "value = satoshis.to_bytes(8, 'little').hex()\n",
    "\n",
    "# Print the result\n",
    "print(value)"
   ]
  },
  {
   "cell_type": "markdown",
   "metadata": {},
   "source": [
    "And the last one we want to build the new spending or also called locking condition - ScriptPubkey.\n",
    "In the case of P2PKH, the ScriptPubkey is:\n",
    "```\n",
    "OP_DUP OP_HASH160 <PubkeyHash> OP_EQUALVERIFY OP_CHECKSIG\n",
    "``` \n",
    "We will not go through the details of execution of OP codes, but the basic idea is that with these OP codes (which are part of Bitcoin scripting language), we construct two conditions that must be satisfied in order to spend this input:\n",
    "1. The first condition is that the public key must be hashed with SHA256 and then with RIPEMD160, and the result must be equal to the PubkeyHash in the ScriptPubkey.\n",
    "2. The second condition is that the signature must be verified with the public key.\n",
    "\n",
    "As you see we need to provide PubkeyHash of the output address. This means that we have to decode Bitcoin address to get the PubkeyHash. We will use the function decode_base58 from the previous notebook to do that."
   ]
  },
  {
   "cell_type": "code",
   "execution_count": 30,
   "metadata": {},
   "outputs": [
    {
     "name": "stdout",
     "output_type": "stream",
     "text": [
      "addr_out:  my28pYxETQ717bfb7Vc91JW1FhV7hdqwqH\n"
     ]
    }
   ],
   "source": [
    "# lets at first generate recipient address or use some if we already have it\n",
    "from bitcoinrpc.authproxy import AuthServiceProxy\n",
    "rpc_user = \"pawel\"\n",
    "rpc_password = \"qqqwwweee\"\n",
    "rpc_port = \"18332\"  # Default port for Bitcoin Core RPC is 8332. Use 18332 for testnet.\n",
    "rpc_connection = AuthServiceProxy(f\"http://{rpc_user}:{rpc_password}@localhost:{rpc_port}\")\n",
    "\n",
    "addr_out = rpc_connection.getnewaddress('', 'legacy')\n",
    "print('addr_out: ', addr_out)"
   ]
  },
  {
   "cell_type": "code",
   "execution_count": 32,
   "metadata": {},
   "outputs": [],
   "source": [
    "# our generated recipient address\n",
    "addr_out = 'my28pYxETQ717bfb7Vc91JW1FhV7hdqwqH'"
   ]
  },
  {
   "cell_type": "markdown",
   "metadata": {},
   "source": [
    "Steps to decode a base58 encoded address:\n",
    "- Decode the base58 encoded address.\n",
    "- Drop the version byte (first byte for most addresses).\n",
    "- Drop the checksum (last 4 bytes)."
   ]
  },
  {
   "cell_type": "code",
   "execution_count": 35,
   "metadata": {},
   "outputs": [
    {
     "name": "stdout",
     "output_type": "stream",
     "text": [
      "bffefcdbe1bb83394fd53ab56a6771e0b349f6cf\n"
     ]
    }
   ],
   "source": [
    "import base58\n",
    "\n",
    "\n",
    "# Decode the address\n",
    "decoded = base58.b58decode(addr_out)\n",
    "\n",
    "# Extract pubkeyhash (remove the version byte and the checksum)\n",
    "PubkeyHash = decoded[1:-4]\n",
    "\n",
    "# Print the pubkeyhash in hex format\n",
    "print(PubkeyHash.hex())"
   ]
  },
  {
   "cell_type": "markdown",
   "metadata": {},
   "source": [
    "Now we just need the values for our OP codes tp construct the new ScriptPubKey. \n",
    "OP_DUP: 0x76\n",
    "OP_HASH160: 0xa9\n",
    "OP_EQUALVERIFY: 0x88\n",
    "OP_CHECKSIG: 0xac"
   ]
  },
  {
   "cell_type": "code",
   "execution_count": 43,
   "metadata": {},
   "outputs": [
    {
     "name": "stdout",
     "output_type": "stream",
     "text": [
      "1976a914bffefcdbe1bb83394fd53ab56a6771e0b349f6cf88ac\n"
     ]
    }
   ],
   "source": [
    "scriptPubKey = '76a914' + PubkeyHash.hex() + '88ac'\n",
    "\n",
    "# now we also need to include the length of the scriptPubkey\n",
    "scriptPubKey_len = bytes.fromhex(hex(len(scriptPubKey)//2)[2:]).hex()\n",
    "\n",
    "print(scriptPubKey_len + scriptPubKey)"
   ]
  },
  {
   "cell_type": "markdown",
   "metadata": {},
   "source": [
    "Now we are almost ready to sign the transaction and replace the termprary signature with the real one (it should be said that during signature verfication Bitcoin Core builds the same tx as with the temprorary signature, otherwise the signature verification will not work). One small detail is that we have to say what part of the transaction we are signing - the standard way is to sign the whole transaction. The SigHash code is '01' 4 bytes in little endian format. So we add to the raw transaction the following bytes: 01000000.\n"
   ]
  },
  {
   "cell_type": "code",
   "execution_count": 38,
   "metadata": {},
   "outputs": [],
   "source": [
    "sighash_type = '01000000' "
   ]
  },
  {
   "cell_type": "markdown",
   "metadata": {},
   "source": [
    "- Now we are ready to sign the transaction"
   ]
  },
  {
   "cell_type": "code",
   "execution_count": 48,
   "metadata": {},
   "outputs": [
    {
     "name": "stdout",
     "output_type": "stream",
     "text": [
      "02000000015207ee20d73408e6f1d538defd2284e41efe021da045c9a63b1c04c21c085937000000001976a91417397ea177aefa977a186ee6c27be7ba0631a10988acfdffffff0150bc1600000000001976a914bffefcdbe1bb83394fd53ab56a6771e0b349f6cf88ac0000000001000000\n"
     ]
    }
   ],
   "source": [
    "rawTx_toSign = (\n",
    "    version             # 4 bytes: Transaction version number\n",
    "    + tx_in_count      # Variable length: Number of transaction inputs\n",
    "    + txid             # 32 bytes: Transaction ID of the UTXO being spent\n",
    "    + vout             # 4 bytes: Index of the UTXO in the transaction\n",
    "    + scriptSig_len_t   # Variable length: Length of the scriptSig\n",
    "    + scriptSig_t      # Variable length: Script that provides data to satisfy the UTXO's locking script\n",
    "    + sequence         # 4 bytes: Sequence number\n",
    "    + tx_out_count     # Variable length: Number of transaction outputs\n",
    "    + value            # 8 bytes: Amount of satoshis to send to the recipient\n",
    "    + scriptPubKey_len # Variable length: Length of the scriptPubKey\n",
    "    + scriptPubKey     # Variable length: Locking script specifying conditions to spend the output\n",
    "    + locktime         # 4 bytes: Time or block number when the transaction becomes valid\n",
    "    + sighash_type     # 4 bytes: Signature hash type (only if signing)\n",
    ")\n",
    "\n",
    "print(rawTx_toSign)\n"
   ]
  },
  {
   "cell_type": "markdown",
   "metadata": {},
   "source": [
    "It should be mentioned the building of a transactionwith M inputs and N outputs is in generally the same. We indicate how many inputs we want to use in tx_in_count and then provide for the each the txid, vout, scriptsig and sequence.\n",
    "For the ouputs we specify the number of outputs in tx_out_count and then provide for each the output the amount and the scriptpubkey."
   ]
  },
  {
   "cell_type": "markdown",
   "metadata": {},
   "source": [
    "Now is the last step of the signing the transaction with the private key. Bitcoin uses ECDSA (Elliptic Curve Digital Signature Algorithm) to sign the transaction. The algorithm is based on the elliptic curve secp256k1. Bitcoin uses deterministic singature mechamism to produce the signature (still the network will accept most all not deterministic signatures, but in this way for learniing purpose it will be not possible to compare our signature to the Bitcoin Core output). So we will use the same deterministic signature mechanism as Bitcoin Core. \n",
    "For P2PKH transaction we have to include the public key corresponding to the private key used to sign the transaction (see locking condition description)"
   ]
  },
  {
   "cell_type": "code",
   "execution_count": 50,
   "metadata": {},
   "outputs": [
    {
     "name": "stdout",
     "output_type": "stream",
     "text": [
      "rawTx_toSign_hash:  769ecd39256687e112d9b48c1405f34cb319df0fb37a95d9b835f369d140eeef\n"
     ]
    }
   ],
   "source": [
    "# at first we create double sha256 hash of raw_tx\n",
    "import hashlib\n",
    "rawTx_toSign_hash = hashlib.sha256(hashlib.sha256(bytes.fromhex(rawTx_toSign)).digest()).digest()"
   ]
  },
  {
   "cell_type": "code",
   "execution_count": 79,
   "metadata": {},
   "outputs": [
    {
     "name": "stdout",
     "output_type": "stream",
     "text": [
      "privKeyWIF:  cUTw4c2ZpjLrvjmK3BVkjtWmKAkQVdqMGgSuuFNeFN2JXm9k8Xmi\n",
      "public_key:  02113610ca6d7a406867f5ecd63debcd1455a259564fbb6062180b12578aa94bb0\n"
     ]
    }
   ],
   "source": [
    "# then we get the private key for the address from which we are spending (which we created in previous step )\n",
    "# Address: mhdkiGJ7wdggCYZKTv5E9NvFotmm9LTaCX\n",
    "# we could also could have created the privKey as described in the part1\n",
    "\n",
    "from bitcoinrpc.authproxy import AuthServiceProxy\n",
    "rpc_user = \"pawel\"\n",
    "rpc_password = \"qqqwwweee\"\n",
    "rpc_port = \"18332\"  # Default port for Bitcoin Core RPC is 8332. Use 18332 for testnet.\n",
    "rpc_connection = AuthServiceProxy(f\"http://{rpc_user}:{rpc_password}@localhost:{rpc_port}\")\n",
    "\n",
    "address = 'mhdkiGJ7wdggCYZKTv5E9NvFotmm9LTaCX'\n",
    "privKeyWIF = rpc_connection.dumpprivkey(address)\n",
    "\n",
    "public_key = rpc_connection.getaddressinfo(address)['pubkey']\n",
    "\n",
    "print('privKeyWIF: ', privKeyWIF)\n",
    "print('public_key: ', public_key)"
   ]
  },
  {
   "cell_type": "code",
   "execution_count": 61,
   "metadata": {},
   "outputs": [
    {
     "name": "stdout",
     "output_type": "stream",
     "text": [
      "cd6133732bf91828e85ed04dc92bb0abbe612b6ac6d279a85e144cf4c6c38623\n"
     ]
    }
   ],
   "source": [
    "# now we need to trnasform this private key from WIF format to bytes\n",
    "import hashlib\n",
    "import base58\n",
    "\n",
    "# Input WIF private \n",
    "\n",
    "# 1. Decode the WIF format using Base58\n",
    "decoded = base58.b58decode(privKeyWIF)\n",
    "\n",
    "# 2. Strip and validate the checksum\n",
    "extended_key = decoded[:-4]  # Strip the checksum\n",
    "checksum = decoded[-4:]\n",
    "\n",
    "# Verify the checksum\n",
    "if checksum != hashlib.sha256(hashlib.sha256(extended_key).digest()).digest()[:4]:\n",
    "    raise ValueError(\"Invalid WIF checksum!\")\n",
    "\n",
    "# 3. Remove the version byte\n",
    "extended_key = extended_key[1:]\n",
    "\n",
    "# 4. Check and remove the 01 byte for compressed pubKey (if present)\n",
    "if extended_key[-1] == 1:  # Checking if the last byte is 0x01\n",
    "    privKey_hex = extended_key[:-1].hex()  # Removing the 01 byte\n",
    "else:\n",
    "    privKey_hex = extended_key.hex()\n",
    "\n",
    "print(privKey_hex)\n"
   ]
  },
  {
   "cell_type": "code",
   "execution_count": 91,
   "metadata": {},
   "outputs": [
    {
     "name": "stdout",
     "output_type": "stream",
     "text": [
      "6a\n",
      "47\n",
      "4730440220253a90bf76314691dab39d40b4691dea2799b094484f247a58fe68e7275a07e2022040c8a08f45222a1eeaaddd5e25320e4019d137f0034d1857149229a47dfe65cb012102113610ca6d7a406867f5ecd63debcd1455a259564fbb6062180b12578aa94bb0\n"
     ]
    }
   ],
   "source": [
    "# now we have everything to sign the transaction\n",
    "from coincurve import PrivateKey\n",
    "\n",
    "# signing key from private key deterministically\n",
    "\n",
    "privkey = PrivateKey(bytes.fromhex(privKey_hex))\n",
    "signature = privkey.sign(rawTx_toSign_hash, hasher=None)\n",
    "\n",
    "# also to signale that we used SigHash all we add 01 at the end\n",
    "signature += bytes.fromhex('01')\n",
    "\n",
    "scriptSig = signature.hex()\n",
    "Sig_len = hex(len(signature))[2:]\n",
    "scriptSig = Sig_len + scriptSig\n",
    "\n",
    "pubkey_len = hex(len(public_key) // 2)[2:]\n",
    "\n",
    "scriptSig += pubkey_len + public_key\n",
    "\n",
    "scriptSig_len = hex(len(scriptSig) // 2)[2:]\n",
    "\n",
    "print(scriptSig_len)\n",
    "print(Sig_len)\n",
    "print(scriptSig)\n"
   ]
  },
  {
   "cell_type": "code",
   "execution_count": 95,
   "metadata": {},
   "outputs": [
    {
     "name": "stdout",
     "output_type": "stream",
     "text": [
      "02000000015207ee20d73408e6f1d538defd2284e41efe021da045c9a63b1c04c21c085937000000006a4730440220253a90bf76314691dab39d40b4691dea2799b094484f247a58fe68e7275a07e2022040c8a08f45222a1eeaaddd5e25320e4019d137f0034d1857149229a47dfe65cb012102113610ca6d7a406867f5ecd63debcd1455a259564fbb6062180b12578aa94bb0fdffffff0150bc1600000000001976a914bffefcdbe1bb83394fd53ab56a6771e0b349f6cf88ac00000000\n"
     ]
    }
   ],
   "source": [
    "# Now we can construct the transaction with the real signature:\n",
    "rawTx = (\n",
    "    version             # 4 bytes: Transaction version number\n",
    "    + tx_in_count      # Variable length: Number of transaction inputs\n",
    "    + txid             # 32 bytes: Transaction ID of the UTXO being spent\n",
    "    + vout             # 4 bytes: Index of the UTXO in the transaction\n",
    "    + scriptSig_len   # Variable length: Length of the scriptSig\n",
    "    + scriptSig      # Variable length: Script that provides data to satisfy the UTXO's locking script\n",
    "    + sequence         # 4 bytes: Sequence number\n",
    "    + tx_out_count     # Variable length: Number of transaction outputs\n",
    "    + value            # 8 bytes: Amount of satoshis to send to the recipient\n",
    "    + scriptPubKey_len # Variable length: Length of the scriptPubKey\n",
    "    + scriptPubKey     # Variable length: Locking script specifying conditions to spend the output\n",
    "    + locktime         # 4 bytes: Time or block number when the transaction becomes valid\n",
    "    # + sighash_type     # 4 bytes: Signature hash type (only if signing)\n",
    ")\n",
    "\n",
    "print(rawTx)"
   ]
  },
  {
   "cell_type": "markdown",
   "metadata": {},
   "source": [
    "Now we constructed the raw bitcoin transaction which we can send to the bitcoin network. But at first we can also use Bitcoin Console to create the same transaction and compare it to ours"
   ]
  },
  {
   "cell_type": "code",
   "execution_count": 94,
   "metadata": {},
   "outputs": [
    {
     "name": "stdout",
     "output_type": "stream",
     "text": [
      "Signed tx: 02000000015207ee20d73408e6f1d538defd2284e41efe021da045c9a63b1c04c21c085937000000006a4730440220253a90bf76314691dab39d40b4691dea2799b094484f247a58fe68e7275a07e2022040c8a08f45222a1eeaaddd5e25320e4019d137f0034d1857149229a47dfe65cb012102113610ca6d7a406867f5ecd63debcd1455a259564fbb6062180b12578aa94bb0fdffffff0150bc1600000000001976a914bffefcdbe1bb83394fd53ab56a6771e0b349f6cf88ac00000000\n"
     ]
    }
   ],
   "source": [
    "# we use the same strucuture as in the beginning of this notebook\n",
    "from bitcoinrpc.authproxy import AuthServiceProxy\n",
    "rpc_user = \"pawel\"\n",
    "rpc_password = \"qqqwwweee\"\n",
    "rpc_port = \"18332\"  # Default port for Bitcoin Core RPC is 8332. Use 18332 for testnet.\n",
    "rpc_connection = AuthServiceProxy(f\"http://{rpc_user}:{rpc_password}@localhost:{rpc_port}\")\n",
    "\n",
    "\n",
    "inputs = [\n",
    "    {\"txid\": \"3759081cc2041c3ba6c945a01d02fe1ee48422fdde38d5f1e60834d720ee0752\", \"vout\": 0}\n",
    "]\n",
    "outputs = {\n",
    "    \"my28pYxETQ717bfb7Vc91JW1FhV7hdqwqH\": 0.0149,\n",
    "}\n",
    "# create raw tx for bitcoin core (is different for manual signing)\n",
    "raw_transaction_hex = rpc_connection.createrawtransaction(inputs, outputs)\n",
    "\n",
    "# sign raw tx\n",
    "signed_transaction = rpc_connection.signrawtransactionwithwallet(raw_transaction_hex)\n",
    "print('Signed tx:', signed_transaction['hex'])"
   ]
  },
  {
   "cell_type": "code",
   "execution_count": 96,
   "metadata": {},
   "outputs": [
    {
     "name": "stdout",
     "output_type": "stream",
     "text": [
      "True\n"
     ]
    }
   ],
   "source": [
    "# lets compare both outputs\n",
    "print(rawTx == signed_transaction['hex'])"
   ]
  },
  {
   "cell_type": "code",
   "execution_count": 99,
   "metadata": {},
   "outputs": [
    {
     "name": "stdout",
     "output_type": "stream",
     "text": [
      "TX_ID:  9f1d7971a330b5b730d084539fac2c530da1f2f6a26f2db4c5e901912c09d132\n"
     ]
    }
   ],
   "source": [
    "# Now with free conciousness we can send the transaction to the network\n",
    "from bitcoinrpc.authproxy import AuthServiceProxy\n",
    "rpc_user = \"pawel\"\n",
    "rpc_password = \"qqqwwweee\"\n",
    "rpc_port = \"18332\"  # Default port for Bitcoin Core RPC is 8332. Use 18332 for testnet.\n",
    "rpc_connection = AuthServiceProxy(f\"http://{rpc_user}:{rpc_password}@localhost:{rpc_port}\")\n",
    "\n",
    "sent = rpc_connection.sendrawtransaction(rawTx)\n",
    "print('TX_ID: ', sent)"
   ]
  },
  {
   "cell_type": "markdown",
   "metadata": {},
   "source": [
    "- WELL DONE -"
   ]
  }
 ],
 "metadata": {
  "kernelspec": {
   "display_name": "bit345",
   "language": "python",
   "name": "python3"
  },
  "language_info": {
   "codemirror_mode": {
    "name": "ipython",
    "version": 3
   },
   "file_extension": ".py",
   "mimetype": "text/x-python",
   "name": "python",
   "nbconvert_exporter": "python",
   "pygments_lexer": "ipython3",
   "version": "3.9.6"
  },
  "orig_nbformat": 4
 },
 "nbformat": 4,
 "nbformat_minor": 2
}
